:020000022000DC
:1060000000000420B5620200DD620200DF620200CF
:10601000E1620200E3620200E562020000000000AB
:10602000000000000000000000000000E762020025
:10603000E962020000000000EB620200ED62020073
:106040009D900200EF620200099A0200EF620200D6
:10605000EF620200EF620200A1940200EF62020010
:10606000EF620200EF620200EF620200EF620200E4
:10607000EF620200EF620200EF620200EF620200D4
:10608000EF620200B5730200EF620200EF620200ED
:1060900055740200EF620200A9D10200EF62020013
:1060A000EF620200EF620200EF620200EF620200A4
:1060B000EF620200EF62020000000000000000003A
:1060C000EF620200EF620200EF620200EF62020084
:1060D000EF620200EF620200EF620200EF62020074
:1060E000EF620200EF620200EF62020000000000B7
:1060F00000000000EF62020000000000EF620200FA
:10610000000000000000000000000000000000008F
:10611000000000000000000000000000000000007F
:10612000000000000000000000000000000000006F
:10613000000000000000000000000000000000005F
:10614000000000000000000000000000000000004F
:10615000000000000000000000000000000000003F
:10616000000000000000000000000000000000002F
:10617000000000000000000000000000000000001F
:10618000000000000000000000000000000000000F
:1061900000000000000000000000000000000000FF
:1061A00000000000000000000000000000000000EF
:1061B00000000000000000000000000000000000DF
:1061C00000000000000000000000000000000000CF
:1061D00000000000000000000000000000000000BF
:1061E00000000000000000000000000000000000AF
:1061F000000000000000000000000000000000009F
:1062000010B5054C237833B9044B13B10448AFF3F0
:1062100000800123237010BDA82E00200000000084
:106220006CF8020008B5034B1BB103490348AFF3F8
:10623000008008BD00000000AC2E00206CF80200B9
:10624000154B002B08BF134B9D46A3F5803A002148
:106250008B460F461348144A121A07F0B9F90F4B30
:10626000002B00D098470E4B002B00D09847002001
:10627000002104000D000D48002802D00C48AFF3A7
:10628000008007F047F92000290005F065F807F0C5
:106290002DF900BF000008000000042000000000ED
:1062A00000000000A82E0020EC40002000000000AC
:1062B000000000000649074A074B9B1A03DD043B18
:1062C000C858D050FBDC02F0DBFBFFF7B9FF000041
:1062D00068F90200E0290020A82E0020FEE7FEE772
:1062E000FEE7FEE7FEE7FEE7FEE7FEE7FEE7FEE786
:1062F000704700BF00B583B0044B0093044A4023AD
:1063000000F036F803B05DF804FB00BF156302002F
:10631000C82E002002B32DE9F843114B114E8846D8
:10632000144643F0010903270025224608EB050126
:10633000002005F0D5F803461D444FF47A40E41AD6
:1063400023B9337833B1C847013F06D001233370F6
:10635000002CEAD1BDE8F88370473770BDE8F883B8
:1063600000E80200C42E0020704700BF05F06CB9A1
:10637000F0B595B0002415460F4608461E4602F0BB
:10638000E3F9384623460895082205A91A9D09967F
:106390000D950A948DF82C400C9402F02FFA9DF87C
:1063A00014308DF81140DDE9061003F00302012AD4
:1063B000CDE9020127D0022A04D0384602F0C8F9FC
:1063C00015B0F0BDBDF81650C3F3C2038DF8103000
:1063D000AD090826082D2C4628BF0824334622463E
:1063E0000EA9384602F00AFA2D1B214608AB02AA74
:1063F0000EA8264400F056FD002DEBD1384602F0E1
:10640000A7F915B0F0BDBDF81460059DC6F383165D
:10641000C3F3C204B2000EA9384608238DF8104019
:10642000C5F3952502F0EAF908AB324628460EA9D5
:10643000009302AB00F090FC384602F089F915B0E9
:10644000F0BD00BF08B5FFF791FF0421034800F03D
:1064500039FC034B01225A7108BD00BF50F90200FC
:10646000E0290020F0B5324C85B004F5836001F0DE
:106470007DFC04F2144001F079FCD4E9013703EA11
:106480000702D01C04EB800114F8200010F0040077
:1064900044D003F1020C0E7806F00306012E654687
:1064A00035D0022E02F1030621D004EB860100282C
:1064B000F1D104EB82020133D26801923B4004EB3C
:1064C000830302F00302012ADE6829D0022A23D1C5
:1064D000BDF806309B090333360C05EB93051548D0
:1064E00001F050FC00B16560304605B0F0BD4B884E
:1064F0000CEB931307EA0302D11C03F1020C14F80E
:106500002100654604EB810100F00400CFE70B8811
:10651000C3F383136344EDE70026E0E79D1CC8E75F
:10652000BDF80430C3F38313360C1D44D7E700BF16
:10653000D82F0020EC3300200B4B0C4810B5002264
:10654000FF21C3F818249960C3E90022C3F814247A
:1065500083F8202402F0B4F8044610B9044802F08D
:106560001DFA204610BD00BFD82F0020F4F802000D
:1065700024E8020021B9124B03EBC0000068704709
:10658000104A0F49521AD20815D030B40E4D2B883C
:10659000834212D0002303E035F82340844205D023
:1065A00001339A42F8D1002030BC704701EBC300A0
:1065B000006830BC7047104670470846F8E700BFD7
:1065C0007CF80200F4F80200A82E0020094B0139E3
:1065D00003EBC00003290BD8DFE801F00208060432
:1065E0000220704740797047007970470420704757
:1065F000002070477CF802002DE9F04383B002AB25
:10660000002203F8012DDFF8DC9007461846884683
:10661000D9F8084001F04AFBD9E90132D9F8006005
:10662000134401339B1B012B58D809F21C4501214F
:10663000284601F083FBFFF715FF0146284601F0CD
:106640007DFBD9E90132D9F80010134401335B1AFC
:10665000012BECD90A400332052302319DF80700D3
:1066600049F82230C9F8001001F046FB00211C480F
:1066700001F05AFB80F31000731C234009EB8303E5
:1066800000043440033440EA1740D86019F824303D
:1066900067F3C50309F8243039F824306FF3891300
:1066A00029F8243059F8242068F39F221346012149
:1066B00061F301036FF3820349F8242009F82430C1
:1066C00099F820341BB906E000F00EF818B1D9E9AA
:1066D00000329A42F8D103B0BDE8F0833146B9E701
:1066E000F4330020D82F00202DE9F047934C0023ED
:1066F00084B0C4F81834BFF34F8FD4E9015605EACB
:106700000602D31C04EB830114F82330580719D573
:1067100027680B7803F00303012B43D0022B03D12E
:106720004B88023505EB931506EA0502D4F81804E8
:10673000D31C04EB830128B9AF4239D914F82330B4
:106740005B07E6D404EB82026B1CD26801923340F3
:1067500004EB830302F00302DB680293022A05F1D3
:10676000020700F08D80012A26D0D4F810543DB1E4
:106770002B6828469B689847EB681D68002DF7D169
:106780006F48704B7049C01AC008000440F0020006
:10679000FFF732FFD4E90030C01A18BF012004B05F
:1067A000BDE8F0870B880235C3F383131D44BBE7B4
:1067B000676004B0BDE8F087BDF804206348C2F309
:1067C0008313062B28BF062363F389120233990033
:1067D000ADF8042001F076FF80460028C5D001F016
:1067E000B3FF0023082201A9404601F0D3FFBDF802
:1067F000043013F4707F00F09F806FF0010AAAEB61
:10680000050A082506EA070103312B46042204EB9A
:106810008101404601F0BEFFBDF8043007F10109D7
:106820000AEB0902C3F3831393424F4605F10405B3
:10683000E8D8D4F81834002B68D1D4F8105465B1D6
:10684000EB685A7928464146002A5BD02B681B68C2
:106850009847EB681D68002DF2D1404601F078FFA3
:1068600004A8002300F80D3D01F020FAD4F81834F4
:106870000BB9C4F804909DF8030001F03DFA89E7D4
:10688000BDF8063031484FEA93194D46502D28BFC8
:10689000502565F38F1305F10801ADF8063001F0BE
:1068A00011FF804600283FF460AF26EA070A0AF18C
:1068B000010A01F049FF4FEA8A0A0023082201A9D0
:1068C000404601F067FF55452BD9EBB2BAF1000FF6
:1068D00020D006EA0701A3EB0A03033104EB810190
:1068E000DDB252460823404601F054FF2A460AF121
:1068F00008031749404601F04DFF09F1030907EB72
:10690000990996E71D68002D9AD1A6E7404601F047
:106910001FFF3FE72A4608230D49404601F03AFF92
:10692000EBE706EA0701033104EB81012A4608235D
:10693000404601F02FFFE0E7B9467AE7D82F002064
:10694000A4F802007CF8020030E80200F4F802002B
:10695000E42F00202DE9F04782B002AB002403F8B9
:10696000014DDFF8ECA00746184691468846DAF854
:10697000084001F09BF9DAE90132DAF800601344CB
:1069800001339B1B022B5ED80AF21C4501212846CD
:1069900001F0D4F9FFF766FD0146284601F0CEF973
:1069A000DAE90132DAF80010134401335B1A022BE2
:1069B000ECD90A400332033145239DF807004AF819
:1069C0002230CAF8001001F097F9B31C23400AEBFB
:1069D000830300211D48C3F80C9001F0A5F980F352
:1069E0001000731C23400AEB83030004344003347B
:1069F00040EA1740D8601AF8243067F3C5030AF854
:106A000024303AF82430012161F389132AF8243024
:106A10005AF8242068F39F22134661F301036FF3B1
:106A200082034AF824200AF824309AF820341BB94B
:106A300006E0FFF759FE18B1DAE900329A42F8D1C0
:106A400002B0BDE8F0873146B3E700BFF433002061
:106A5000D82F00202DE9F04F83B002AD002405F8B7
:106A6000014D3B4C8046284693469A468946A56888
:106A700001F01CF9D4E90132276813440133DB1B10
:106A8000032B63D804F21C460121304601F056F96D
:106A9000FFF7E8FC0146304601F050F9D4E9013235
:106AA0002168134401335B1A032BEDD90A400332EA
:106AB000852344F8223004319DF80700216001F05D
:106AC0001BF9BA1CFB1C2A402B4004EB820204EB8E
:106AD000830300211F48C2F80CB0C3F80CA001F0DA
:106AE00023F980F310007B1C2B4004EB830300048C
:106AF0003D40033540EA1840D86014F8253068F36B
:106B0000C50304F8253034F82530022262F38913D6
:106B100024F8253054F8252069F39F2213460121DB
:106B200061F301036FF3820344F8252004F8253054
:106B300094F820341BB906E0FFF7D6FD18B1D4E96C
:106B400000329A42F8D103B0BDE8F08F3946ADE784
:106B5000D82F0020F43300202DE9F04F89B008AE83
:106B6000002406F8194DCDE902239946139B4D4C9C
:106B70000593149B129F06938046159B04973046FD
:106B800092460793A5688B4601F090F8D4E901324C
:106B9000276813440133DB1B072B00F2818004F2CA
:106BA0001C460121304601F0C9F8FFF75BFC0146A5
:106BB000304601F0C3F8D4E90132216813440133AF
:106BC0005B1A072BEDD90A40033240F2851344F8D3
:106BD000223008319DF80700216001F08DF8BB1CC0
:106BE0002B4004EB8303F91C07F1040CC3F80CA041
:106BF00029400CEA050C7E1DFB1D2B402E4004EBAA
:106C0000810104EB8C0CBA1D04EB830E2A40129B0D
:106C1000C1F80C9004EB8606CCF80C3004EB820231
:106C2000139BF360149BD3600021159B1E48CEF884
:106C30000C3001F079F880F310007B1C2B4004EB42
:106C4000830300043D40033540EA1840D86014F83F
:106C5000253068F3C50304F8253034F825300622C2
:106C600062F3891324F8253054F825206BF39F2212
:106C70001346012161F301036FF3820344F82520D9
:106C800004F8253094F820341BB906E0FFF72CFDFA
:106C900018B1D4E900329A42F8D109B0BDE8F08FBA
:106CA000394690E7D82F0020F4330020044BD3E975
:106CB00000239A4201D0FFF717BD0020704700BFA4
:106CC000D82F002030B4184DD5F8104400215CB105
:106CD000E3681A798A4204D116E0DB681A798A429D
:106CE00012D01B68002BF8D1C3681971D5F8103485
:106CF00093B1DA68C36812681A60D5F81034DB689B
:106D0000186030BC0846704701310A29DFD14FF0C6
:106D1000FF31084630BC7047C5F81004C2681360E4
:106D2000084630BC704700BFD82F002038B5094B4B
:106D3000D3F81044012583F820544CB1E3685D7109
:106D4000236820465B689847E3681C68002CF5D1EF
:106D500038BD00BFD82F00202DE9F04784B01D4674
:106D60000C9C002394F80C802373EB8881460E461C
:106D70001746002B40D1297A05290ED06B7AA888B6
:106D800073BB404B53F821A00021FFF7F3FB5246A1
:106D900003463D49204601F06DF8062F09D8DFE88B
:106DA00007F0046A4249525D33004946204601F02B
:106DB00061F82B7A052B05D06B7A5BB933492046F5
:106DC00001F058F8204601F049F884F80C8004B02E
:106DD000BDE8F0872E4A2F49204601F04BF8EDE739
:106DE000FFF7F4FB2C4B2B4953F82020204601F0F1
:106DF00041F8297AA888C4E7254A00922749284AF9
:106E0000204601F037F8B6E7D6E90410D6E90023AA
:106E10000390D6E902070291CDE9000749462046D2
:106E200001F028F8C5E74946D6E90023204601F0DD
:106E300021F8BEE7B168D6E9002320460091494613
:106E400001F018F8B5E7D6E90201D6E9002301916F
:106E500000904946204601F00DF8AAE7D6E90371F3
:106E6000B068D6E900230291CDE9000749462046E3
:106E700001F000F89DE732684946204600F0FAFF2D
:106E800097E700BFBCE80200ACE80200B8E80200E7
:106E9000A0E80200A8E8020048E8020088E8020032
:106EA00080E80200082900D970472DE9F04F1D46FF
:106EB000904600232A7B2B7385B0B8F806300392E6
:106EC00007460E46002B7BD198F80810052911D0F3
:106ED00098F80930B8F80400002B63D13C4B53F804
:106EE00021400021FFF746FB224603463949284648
:106EF00000F0C0FFDFF8FCB0DFF8FC90002405E0F4
:106F00003A5D013400F0B6FF082C09D0A64249468C
:106F10002846F5D85946013400F0ACFF082CF5D1CD
:106F20002D49DFF8D8B0DFF8D890284600F0A2FF4E
:106F300000240CE017F804A0BAF17E0F23D92E220A
:106F400049462846013400F095FF082C08D0A64297
:106F5000F0D859462846013400F08CFF082CF6D1B1
:106F600098F80830052B02D098F80930A3B91B49CE
:106F7000284600F07FFF284600F070FF039B2B732C
:106F800005B0BDE8F08F06F0E9FA50445246437868
:106F900013F0970FD3D0D3E7114A1249284600F0D7
:106FA00069FFE4E7FFF712FB0F4B0E4953F820206F
:106FB000284600F05FFF98F80810B8F804008DE745
:106FC000074A009209490A4A284600F053FF7BE726
:106FD000BCE80200ACE8020078E80200B8E8020071
:106FE000A0E80200A8E8020048E8020088E80200E1
:106FF00080E8020074E802006CE80200B4E80200D5
:107000007CE80200434B1978002900F081802DE9CB
:10701000F04F002487B001258E4603E00134E4B22E
:10702000744560D23C4B27B21E6816F837C0ACF1ED
:10703000200205FA02F9394ACCF12003D2E9000115
:1070400025FA03F349EA030905FA0CF800EA0802F5
:1070500001EA0903134306EBC70BDFD021EA09035A
:107060002E4920EA08026046C1E9002302F008FA2E
:1070700016F837C0ACF1200205FA02F2019201992C
:10708000CCF12003C6B225FA03F3ACF12002194378
:1070900006FA02F30393224B0191D3E90023CDE9D1
:1070A000042305FA0CF30093CCF12001039B26FA8C
:1070B00001F10B43039306FA0CF30293DDE9046735
:1070C000DDE9002316401F4032463B46DDE90267FA
:1070D000BB4208BFB24209D00E4B013493F800E026
:1070E000E4B274459ED307B0BDE8F08F9BF8011061
:1070F000DBF80430A1F10101B1FA81F14909091A63
:10710000B1FA81F14909002BE6D060469847E3E7E0
:10711000704700BF94340020D0340020C8340020D1
:10712000C03400202DE9F84F0646244800F018FC32
:10713000D8B9234F0123A6F1200103FA01FBC6F1C0
:107140002002D7E9000123FA02F24BEA020B03FA0C
:1071500006FA00EA0A0201EA0B03134307D020EA09
:107160000A0421EA0B05C7E90045BDE8F88F30465F
:1071700002F086F9134ED6E90089C8B148EA0A033D
:1071800049EA0B049846A146D7E900234BEA0305D8
:107190000D4B0A4819684AEA02044B464246C6E9C2
:1071A0000023C7E900450022BDE8F84F00F082BB8C
:1071B00028EA0A0829EA0B09E6E700BF9C34002008
:1071C000C8340020C034002098340020042A36D966
:1071D0002DE9F04182B00E460546144601F0DAFF73
:1071E000002836D01D491E4A1E4B0D601E481F49FF
:1071F0001C60167000230022741EC0E90023C1E940
:107200000023E4B2EEB105EBC404194F083D4FF082
:107210000008032601E0AC4213D0A37820788DF853
:1072200006803A4601A98DF804608DF8053001F01A
:10723000BBFF083C0028EED002B0BDE8F08107207B
:1072400070470C4A0C48002100F022FB02B0BDE858
:10725000F08101F055FF0028C4D0EDE7D0340020C4
:107260009434002098340020C0340020C83400201A
:10727000257102000570020028E9020070B5084D72
:107280002B785BB1074E00243368012113F83400DA
:1072900002F07AF82B780134A342F5D8002070BDB3
:1072A00094340020D034002000B585B00023039032
:1072B000194601AA44F20100CDE9013300F004F8B7
:1072C00005B05DF804FB00BF10B572B6FFF72EFDE8
:1072D000FFF7ECFC0028FBD1104B114C1149E41ACC
:1072E000E408240444F00100FFF786F90E4B1B6804
:1072F000DB0700D500BE44F002000C49FFF77CF923
:10730000BFF34F8F0A490B4BCA6802F4E062134384
:10731000CB60BFF34F8F00BFFDE700BF7CF80200DA
:10732000A4F802002CE90200F0ED00E038E90200C8
:1073300000ED00E00400FA0559B142B1531E1A40B5
:1073400005D1826001608380C260104670470920C9
:1073500070470E20704700BF10B403468468C068B1
:107360009A88001B82420AD3D8681C680240002019
:10737000A154DA680132DA605DF8044B70470420EA
:107380005DF8044B704700BF03468068DA6890429E
:107390000DD010B498689A881C6802400020A25C46
:1073A0000A709A6801329A605DF8044B70470520B4
:1073B000704700BFF8B5204A204B0024C2F8404176
:1073C000C2F84441C2F84841C2F84C41C2F80041F9
:1073D000C2F804411B6833B31949D2F804550A684E
:1073E000AD1A1A6825F07F45AA4227460DD8197CA8
:1073F000DE69AD1A144419B11F74D3E90520904712
:107400001EB133461A68AA42F1D90E490E4A0B78CA
:1074100012789A4208D00D490D4A41F823404FF4A2
:107420008013C2F80031F8BD531CDBB2022B08BF39
:1074300000230B70EFE700BF00100140F43500207F
:10744000F0350020ED350020EC350020E43500203B
:1074500000E100E02DE9F04F8C4A8D49137809785E
:10746000DFF85082994285B0D8F800A000F07B8107
:107470000133DBB2022B08BF002386481370864A13
:10748000076852F823107B1823F07F430024036021
:10749000534626462046A446ABB11A688A4200F2FB
:1074A0006581DC68C3F800C0891A1044DA6934B118
:1074B0003D1825F07F45C3E90154DE611E461346A1
:1074C0000124002BE9D1002C40F07C8101230093A2
:1074D000724B734FDFF8E09143F00103019355467F
:1074E0004FF0000B46B3D6E901C13446F669694B4B
:1074F0006C481A68ACEB020323F07F43834248D800
:107500000B44236000220121C4E90122E2612174BD
:10751000002D5DD02A689A424DD2284603E00A68C1
:107520009A424FD20846C1699B1A0029F7D12360BD
:10753000E161C461002ED6D178783978884264D070
:107540000B4603EB43034C1CBA7807EBC303E1B2D1
:107550008A421A79397004BF00213970022A9C6866
:1075600044D0032A38D0012AE8D1227C002AE5D170
:10757000D3F80CC0C4F804C01969A1605869E06070
:1075800099F800009B69A3610028B0D0626094461E
:10759000ADE7A2EB0C0222F07F428A4202D28B1AA4
:1075A0002360AFE700230122C4E90033A360E36155
:1075B00022746DB12A68C8F80040D31A2B60E561C7
:1075C00025468FE7D21A0A602360E161C461B1E702
:1075D000C8F80040254685E7002DAFD000232B7466
:1075E000ED69002DFBD1C8F80050A5E74DB1AC42C4
:1075F0002B4603D1E4E094422FD01346DA69002AE7
:10760000F9D10023237488429AD1BBF1000F01D134
:10761000554553D0002D56D1234E244A1F4C4FF4CC
:1076200080334FF400310127C2F880103C43C6F884
:1076300048334FF43C60C6F808337760A047154BD9
:10764000B7604FF43C601D60A047194B1D700023CC
:1076500089F8003005B0BDE8F08FA34200F09180BA
:10766000E0692168D861002800F086802A46036816
:107670000B440360AA424FF00003397878782374F2
:107680001CBF15464FF0010BBDE700BFEC350020D5
:10769000ED350020F0350020E435002050E90200EF
:1076A000D4340020FEFF7F000010014000E100E024
:1076B000E1350020F4350020E0350020009B002B50
:1076C000C5D0002DA8D0434B434A1C68D2F80465AE
:1076D000424FD5F800A03978331B23F07F43DD1CDF
:1076E000B9B93F493F4B4FF48030C2F844034FF0E3
:1076F0000108C2F804034FF40030C1F8800143F0E0
:1077000001030860C2F800804FF43C60984787F896
:107710000080AA452CBF04EB0A0363192E4923F00D
:107720007F43C1F84035D1F80425921B9B1B22F002
:107730007F4223F07F4303329A4288D9294BD1F804
:107740000425C1F8402543F001034FF43C609847FD
:10775000234B4FF40032C3F80021002389F8003096
:1077600005B0BDE8F08F00260096B1E674BB521A52
:107770001A6001230093ABE60023397878782374EC
:1077800041E71946EA69C8F8002092B9CDE902310B
:10779000114BDFF840C001209860019B89F8000080
:1077A000CCF800204FF43C609847DDE90231D8F86E
:1077B0000020C8690968D86100287FF458AF59E7EC
:1077C0002946DFE7C8F800309A467FE6C8F800305F
:1077D0009A46CCE7F035002000100140E13500204A
:1077E00000E100E050E902002DE9F8431F4D204E72
:1077F000204FDFF898804FF480334FF400324FF081
:1078000001090024C6F8802047EA0907C5F8483373
:107810004FF43C60C5F80833C5F80490B847C5F884
:1078200008904FF43C60C8F80040B847124A134B28
:1078300013491C601470134B134A0C700B21147005
:107840001C8099704FF48012C023C6F8802186F8FE
:1078500014333260C5F8084586F81133D5F804357D
:10786000C8F800302046BDE8F88300BF0010014092
:1078700000E100E050E90200E1350020F43500208D
:10788000EC350020D4340020ED350020F035002008
:10789000074B9B784BB132B128B10368187C20B9F3
:1078A00059745A617047072070470820704700BF1D
:1078B000D43400202DE9F047264CA37882B0002B69
:1078C0003CD000283AD004293CD94369002B35D05C
:1078D000814602A899F811300026012B00F8016DAD
:1078E0000CBF8846B04617468A4600F0DFF9637839
:1078F000A17822789DF807005D1CEDB2A94208BF6F
:107900003546AA4222D003EB430304EBC303012113
:10791000114AC3F808901971D2F804256570C3E9BB
:10792000032AC3E9058700F0E7F90C4B4FF48012F6
:107930003046C3F8002102B0BDE8F087082002B04D
:10794000BDE8F087072002B0BDE8F08700F0D4F969
:107950000420F0E7D43400200010014000E100E0F2
:10796000F0B51A4CA37883B043B338B343692BB353
:10797000064602A8002500F8015D357400F096F96E
:107980006278A77821789DF80700531CDBB29F42EC
:1079900008BF2B46994214D002EB420204EBC2020C
:1079A000022196601171637000F0A6F9084B4FF444
:1079B00080122846C3F8002103B0F0BD082003B0B0
:1079C000F0BD00F099F90420F9E700BFD43400209D
:1079D00000E100E030B50478012C83B027D017D344
:1079E000022C13D1384B394D1A78C168AA5C019129
:1079F0008DF80040002A33D103F10C0001223449F4
:107A000002F070FA334B68461B68984703B030BDEC
:107A100031493248FFF7B8FC002844D002A80323BC
:107A200000F8083D2B4B1B68984703B030BD4368F6
:107A30002B4D19782846FFF78FFC40B3254B01905A
:107A40008DF800401B6868469847A968EB68AA88CB
:107A50005B1A9A420AD2234B01221A7003B030BD3E
:107A6000181D01221A4902F0D5FCCBE71648174A27
:107A70000378D35C2BB9012215490C3002F032FA9D
:107A8000C4E701221249043002F0C4FCBEE7AA6830
:107A9000EB689A42D9D002AB0E4A03F8080D12687F
:107AA00018469047D1E70848084A0378D35C2BB9B9
:107AB000012209490C3002F0A3F9A7E70122064987
:107AC000043002F047FCA1E7E82900206C400020C8
:107AD00020360020F8350020243600201036002003
:107AE000FC3500200C3600202DE9F045324C89B0E1
:107AF0002260002955D00C4680468A882F480968A4
:107B00009A46FFF719FC10B109B0BDE8F085A289CB
:107B1000A1682B48FFF710FC0028F5D1294D98F8F3
:107B200010C0D8F81470284E0FCD6C460FC495E8DD
:107B30000F0098F811501CF1000C18BF4FF0010C09
:107B4000002D84E80F00D8F80850D8F80040D8F885
:107B50000430069714BF0E220022D8F80C708DF85E
:107B6000152069463046194A8DF81CA08DF814C0BE
:107B7000CDE90275CDE9003401F020FA0028C3D127
:107B8000D8F80030124A01331070BDD0114A337852
:107B9000D35C53B906F10C0001220F4902F0A2F99F
:107BA000B2E7072009B0BDE8F085301D01220A497F
:107BB00002F030FCA8E700BFF8350020FC350020BB
:107BC0001036002058E90200E8290020D57902008B
:107BD0000C3600206C4000202036002070B5114C7F
:107BE000014611482678FFF7CFFB05460EB9284617
:107BF00070BD0E480E4A0378D35C0022227053B940
:107C00000C3001220B4902F06DF90028EFD0FFF78C
:107C10004BFB284670BD01220649043002F0FAFBF6
:107C2000F3E700BF0C360020FC350020E8290020D7
:107C30006C4000202036002070B501461548FFF743
:107C40008BFB044608B1204670BD134D134E2B78B4
:107C5000F35CABB905F10C0002F038F90028F2D161
:107C60000F490C48FFF790FB0028ECD12B780C490A
:107C7000F35C012243B90B48BDE8704002F0C0B884
:107C8000281D02F0B9FBE9E70748BDE8704002F0A3
:107C900061BB00BF10360020E82900206C400020A6
:107CA00024360020F4290020EC29002070B4EFF3E2
:107CB000108472B60D4B9A68AAB90D490D4E012574
:107CC0009D60D1F8805035401D60C1F88060D1F8CA
:107CD00084505D604FF0FF33C1F88430027004B906
:107CE00062B670BC704701230370F8E76040002063
:107CF00000E100E0FC06FFBD094B9A687AB170B95B
:107D000010B4EFF3108172B6064A1C6814605C6808
:107D10005460986001B962B65DF8044B70477047D3
:107D20006040002000E100E050E8002F0B4640E8F2
:107D3000003C9CF0000FF7D11046704750E8003F20
:107D400003EB010240E8002C9CF0000FF6D1104636
:107D5000704700BF50E8003FA3EB010240E8002C51
:107D60009CF0000FF6D11046704700BF012350E889
:107D7000002F42EA030C40E800C191F0000FF6D159
:107D800060467047002350E800CF0CEA030240E849
:107D9000002191F0000FF6D160467047B8B130B4C1
:107DA000D0E90112521A0468D2B2531E2160DBB22C
:107DB00042B101680A685C1E551C0D601370E3B285
:107DC000FF2BF6D103680020187130BC70470E20DD
:107DD000704700BFF0B583B002AB002503F8015D2A
:107DE00004461846FFF762FFD4E900311A688A4258
:107DF00010D9511E19602168A3680F6812F8015C40
:107E00000A79268AE068DB1BDBB29A4206FB05058D
:107E100038BF0B719DF80700FFF76EFF284603B0CF
:107E2000F0BD00BF30B583B002AB002203F8012DD6
:107E3000054618460C46FFF739FF2A681368591C97
:107E40001160E9682A8A641AB4FBF2F41C709DF888
:107E50000700FFF751FF03B030BD00BF826842B199
:107E600010B5044643690168006998470023A36080
:107E700010BD70470EB400B582B0039929B102AAB3
:107E800004AB42F8043D00F0A9F802B05DF804EB41
:107E900003B070472DE9F04F924683B051450F462D
:107EA00005461E46DDE90CB2C0F092800B464FF04D
:107EB0000108B3FBFAF39A4508F10108F9D9B04576
:107EC00038BFB04612F00109A96802D1BBF1000F1A
:107ED00054D1012402E0013E0AFB04F4012EFAD839
:107EE000B7FBF4F08245F7D93B4E02E0A968B7FB37
:107EF000F4F0335C2A680A2B04FB107702EB010EC6
:107F000001F1010029D0A8608EF80030D5E90131D7
:107F1000994202D32846FFF7A1FFB4FBFAF4002CE4
:107F2000E4D1B9F1000F15D0BBF1000F12D0C34559
:107F300010D92024AB682A68591CA960D454D5E90B
:107F400001329A420BF1FF3B14D2BBF1000F01D07A
:107F5000C345EFD103B0BDE8F08FA8604FF00D002E
:107F60005054D5E9011088421DD2296801EB000E5A
:107F70000130C8E72846FFF771FFE6E7930722D4F0
:107F80002024C345A5D92B684A1CAA605C54D5E9B6
:107F9000013199420BF1FF3B10D2BBF1000F98D099
:107FA000C345F0D195E728460193FFF757FFAA682C
:107FB0002968019B501C01EB020EA4E72846FFF73D
:107FC0004DFFA968E9E7002E0CBF30242024D8E734
:107FD0004FF0010873E700BF78E90200002900F0C4
:107FE000B9822DE9F04F054687B091460C460E78D0
:107FF000DFF8C8A64FF00D0B13E0AB6828680A2E17
:1080000003F1010200EB030100F04B82AA600E7045
:10801000D5E901329A4280F01B812678002E00F0CB
:108020001E810134002E00F01A81252EE5D1234651
:10803000002713F8012B2D2A00F0E380302A00F0EE
:10804000E4802B2A00F0D4802A2A00F00D81A2F1CE
:108050003006F1B2092903D97DE2A1F130060346C9
:10806000184606EB860110F8012BA2F13004092C0A
:1080700002EB4101F1D92E2A00F002814FF00008F5
:10808000013301E013F8012B02F0FB0168291C46C3
:10809000F8D0253A532AC0D801A353F822F000BFE4
:1080A0008B8402001B8002001B8002001B800200E8
:1080B0001B8002001B8002001B8002001B8002004C
:1080C0001B8002001B8002001B8002001B8002003C
:1080D0001B8002001B8002001B8002001B8002002C
:1080E0001B8002001B8002001B8002001B8002001C
:1080F0001B8002001B8002001B8002001B8002000C
:108100001B8002001B8002001B8002001B800200FB
:108110001B8002001B8002001B8002001B800200EB
:108120001B8002001B8002001B8002001B800200DB
:108130001B8002001B8002001B8002001B800200CB
:108140001B8002001B8002001B8002001B800200BB
:108150001B8002001B8002001B8002001B800200AB
:108160001B8002001B8002001B8002006F84020043
:108170001B8002001B8002001B8002001B8002008B
:108180001B8002001B8002001B8002001B8002007B
:108190001B8002001B80020013820200F583020094
:1081A0001B8002001B8002001B8002001B8002005B
:1081B000F58302001B8002001B8002001B8002006E
:1081C0001B8002001B8002001B8002005D830200F6
:1081D0001B8002001B800200D58202001B8002006F
:1081E000B98202001B8002001B8002006F84020023
:1081F00047F004071C46234613F8012B2D2A7FF471
:108200001DAF47F001071C46F5E747F002071C4683
:10821000F1E7D9F800301A1DC9F800201E78AB68C4
:108220000A2E0CD12A68591CA96002F803B0D5E9BE
:108230000123934203D32846FFF710FEAB682A6858
:10824000591CA960D654D5E901329A42FFF4E5AE33
:108250002846FFF703FE2678002E7FF4E2AE2B7B44
:1082600023BB07B0BDE8F08FD9F80020111DC9F875
:108270000010166862782E2A04F102007FF4FEAE28
:108280005A78A2F13003092B00F2BD814FF00008AB
:1082900008EB880802EB480810F8012FA2F1300320
:1082A000092BA8F13008F3D90346E9E6284607B0C0
:1082B000BDE8F04FFFF7D2BDD9F800301A1DC9F85C
:1082C000002019680197434600960A222846FFF7C6
:1082D000E1FDA2E6D9F800301A1DC9F80020D3F854
:1082E0000080FB0700F1E880B8F1000F00F0A181E9
:1082F000404605F095F90746BE4215D9A6B12021A2
:1083000000E08EB1AA682B68501CA8609954D5E98A
:1083100001329A4206F1FF3604D328460391FFF753
:108320009DFD0399BE42ECD108F1FF3818F8016FAA
:10833000002E3FF472AEAB6828680A2E03F10102EA
:1083400000EB030100F09081AA600E70D5E90132C4
:108350009A42EBD32846FFF781FDE7E7D9F80020E2
:10836000131DC9F80030AB6829681768581C302203
:10837000A860CA54D5E90123934280F0E6802A68B8
:10838000581C7821A860D154D5E90123934280F08C
:10839000D7800F2F03D93A4612090F2AFCD84FF085
:1083A00080560DE0AA6081F80080D5E901329A423A
:1083B00002D32846FFF752FD36093FF42EAEAB68D4
:1083C000B7FBF6F21AF802802868B8F10A0F06FB2C
:1083D000127700EB030103F10102E3D1AA6000F878
:1083E00003B0D5E901329A4280F049812B6899188F
:1083F0000132D7E7D9F800301A1DC9F800201968F2
:1084000081EAE173A3EBE173092B40F30E81AA48E3
:108410000122A0FB03C3DB08092B02F10102F8DCF7
:108420004245134638BF4346039307F00203002E2C
:1084300040F09580002B00F0B780B8F1000F00F0FD
:10844000F680F80740F1B0800029C0F2FF807A077B
:1084500000F1C88007F00303022B00F0A780CDE9EC
:10846000006743460A222846FFF714FDD5E5D9F8F0
:1084700000301A1DC9F8002019680197434600967C
:1084800010222846FFF706FDC7E5AB682A68581C8E
:108490002521A860D154D5E901329A42FFF4BDAD3F
:1084A000D6E6AA6000F803B0D5E901329A423FD27D
:1084B000296811440132A9E54146A1EB080311F8EE
:1084C000017BD7B1AB68D5F800C00A2F03F10102D8
:1084D0000CEB030000F0AF80AA600770D5E9013211
:1084E0009A42EAD328460391FFF7B8FC0399A1EB1F
:1084F000080311F8017B002FE4D19E427FF68DAD79
:10850000202702E0002E3FF488ADA9682A68481CA5
:10851000A8605754D5E90121914206F1FF3604D3F2
:1085200028460393FFF79AFC039BB342EAD174E514
:108530002846FFF793FCAB6829685A1C194465E587
:108540002846FFF78BFCAB6823E72846FFF786FC3D
:10855000AB6814E770471846002623468BE50029D0
:1085600020DB7A071ED41BB1B8F1000F3FF46CAFCB
:10857000F8073FF569AFBEB1039BB342BFF464AFE8
:108580002023AA68501CA86028688354D5E90102FA
:10859000824206F1FF3640D236B1039AB242F0D1A0
:1085A000164651E7013EDEE700264DE7B8F1000F21
:1085B0007FF455AF002E6AD0039BB342BFF44FAF98
:1085C0003023AA68501CA86028688354D5E90102AA
:1085D000824206F1FF3618D2002E58D0039AB242DA
:1085E000EFD13CE7AA68531CAB602B682B20985452
:1085F000D5E901329A42FFF42DAF28460491FFF7E6
:108600002DFC049926E7034638E52846CDE90413F6
:10861000FFF724FCDDE90413DEE72846CDE9041367
:10862000FFF71CFCDDE90413B6E70122F8E6464635
:108630000AE7474660E6AA600CF803B0D5E90132C4
:108640009A4226D22B689818013245E7AA68531C33
:10865000AB602B682D209854D5E901329A42C1F1C4
:108660000001FFF4F7AEC8E7AA6000F803B0D5E94F
:1086700001329A4217D229681144013264E6284631
:10868000FFF7ECFBA9682B684A1C19448AE6002610
:10869000E5E628460391FFF7E1FBA8682B680399FC
:1086A000421C184418E72846FFF7D8FBAB68296836
:1086B0005A1C194448E600BFCDCCCCCC78E9020066
:1086C000FFF76CBB2DE9F041058ACE1C043D2E441A
:1086D0000746B6FBF5F6FFF77DFB78B3F6B24FF42D
:1086E0008073013E0446C5800760838027D08046A2
:1086F000002509E06379AE4203F101036371C8F814
:108700000000076080461AD03846FFF763FB01354A
:108710000028EFD16679721E14D0234601308242C0
:108720001B68FBD11F684EB1002523682146013527
:1087300038461C46FFF776FBAE42F6D100242046B1
:10874000BDE8F0812768EFE704300121FFF7F6BAB2
:10875000F8B5012104460430FFF7FCFAC0B200B1BD
:10876000F8BD6679721E12D02346013082421B6822
:10877000FBD11F68002EF3D0002523682146013568
:1087800038461C46FFF74EFBAE42F6D1F8BD2768CF
:10879000F2E700BF2DE9F843C788467907FB06F6E4
:1087A000043E02EB030C0446664503F10400154643
:1087B0008846B0FBF7F238BFF51A07FB120012B17A
:1087C000013A2468FCD13E1AAE4228BF2E469DB124
:1087D0004FF000090430AD1B2044324608EB09017C
:1087E00004F0EBFEAF42B14424683E464FF0000077
:1087F00028BF2E46002DEDD1BDE8F8832DE9F843C2
:10880000C7884679154607FB06F6043E05EB030CC0
:108810001A1D664504468846B2FBF7F038BFF51AC4
:1088200007FB102110B101382468FCD17E1AAE423A
:1088300028BF2E469DB14FF0000904312144AD1BE5
:10884000324608EB090004F0B8FEAF42B144246898
:108850003E464FF0000128BF2E46002DEDD1BDE869
:10886000F88300BF33DF704741DF7047064A074B8C
:1088700010B5002414701C60BFF35F8F04490548D5
:1088800000F09AF8204610BD313600203436002022
:1088900088E902002836002000B583B002A8002332
:1088A00000F8013DFFF702FAF1EE103A23F09F03C2
:1088B000E1EE103ABFF35F8F0A4B4022C3F88421E8
:1088C0009DF80700FFF718FA04F068FC28B920BFEC
:1088D00040BF20BF03B05DF804FBFFF7C5FF03B046
:1088E0005DF804FB00E100E0F8B5264D06460121E5
:1088F0002846FFF719FABFF35F8FD0B9042E2FD0A7
:10890000214B1A7892B9214C012226701A70204E00
:1089100073687BB1374604E0384600F057F8736857
:1089200043B11B68207898470028F5D1BFF35F8FCB
:108930002860F8BDFEF7FAF9FEF7B8F90028FBD178
:108940002378023B012B0DD904F028FCB8B94FF075
:1089500080430122C3F80025BFF34F8F20BFFDE7FE
:108960000A4CD4E7BFF34F8F0A490B4BCA6802F495
:10897000E0621343CB60BFF34F8F00BFFDE7FFF70B
:1089800071FFE4E734360020313600203036002015
:108990002836002000ED00E00400FA05826800237C
:1089A000936082681361826853618268D3608268D1
:1089B000536082681360704701600B6843604A68C7
:1089C000934204BF00234360704700BF436843B134
:1089D000026891680B4443605268934204BF0023CD
:1089E0004360704730B4184DA5F59472AB1ADB1094
:1089F00003EBD3735B1002EBC30152F833309842A0
:108A000028BF0C4605D311E052F8333098420CD2FF
:108A100021468B1ADB1003EBD3735B108A4202EB07
:108A2000C304F1D3094830BC70470D46984204D9BD
:108A300004F10802AA42D9D3F4E76068034B002886
:108A400008BF1846EFE700BFDCEA0200A0E9020019
:108A500070B5161E07DD0C468D1914F8010BFFF7D3
:108A6000EBF8A542F9D1304670BD00BF10B50C46F9
:108A70002046FFF7B3F80528FAD0012010BD00BF4B
:108A800010B44FF080414FF080520020C1F80C012B
:108A90005E4BC1F81001C1F83805D2F80414C3F8D0
:108AA0002015D2F80814C3F82415D2F80C14C3F812
:108AB0002815D2F81014C3F82C15D2F81414C3F8E2
:108AC0003015D2F81814C3F83415D2F81C14C3F8B2
:108AD0004015D2F82014C3F84415D2F82414C3F872
:108AE0004815D2F82814C3F84C15D2F82C14C3F842
:108AF0005015D2F83014C3F85415D2F83414C3F812
:108B00006015D2F83814C3F86415D2F83C04C3F8E1
:108B10006805D2F840043E49C3F86C050968D2F8EC
:108B20004424C3F87025082924D04FF08043D3F89B
:108B30000024D20744BF6FF00102C3F80024354A75
:108B4000D2F8883043F47003C2F88830BFF34F8FF7
:108B5000BFF36F8F4FF01023D3F80022002A23DBDE
:108B6000D3F80432002B1FDB2B4B2C4A1A605DF824
:108B7000044B70472A4B1B68002BD6D129482A4A40
:108B80002A4C04602A492B4BFB20C2F818050A68BE
:108B90001B68294822F00F0203F00F0313434FF420
:108BA00000720B600260C0E7244B0122C3F8042569
:108BB000D3F80024002AFBD04FF0102312221F49C3
:108BC000C3F80022D1F80034002BFBD04FF0102264
:108BD00012211A4BC2F80412D3F80024002AFBD049
:108BE00000221649C3F80425D1F80034002BFBD02D
:108BF000BFF34F8F0749124BCA6802F4E062134378
:108C0000CB60BFF34F8F00BFFDE700BF00C0004047
:108C10003001001000ED00E0FC2900200090D0039E
:108C2000340100108C56004000F0004048810300E1
:108C3000E40E0040580200104096024000E001405F
:108C40000400FA05074B1B5C1F2B8ABF064A4FF036
:108C5000A04203F01F03D2F80405D840C04300F03F
:108C600001007047C8EE020000030050074B1B5C78
:108C70001F2B86BF03F01F0305494FF0A0410122BF
:108C800002FA03F3C1F80C35704700BFC8EE0200CA
:108C900000030050074B1B5C1F2B86BF03F01F0314
:108CA00005494FF0A041012202FA03F3C1F808354B
:108CB000704700BFC8EE02000003005030B44FF010
:108CC000A043094940254FF480744FF400704FF4DD
:108CD0008052C3F80855C3F80845C1F80805C3F821
:108CE000082530BC704700BF0003005030B44FF07F
:108CF000A043094940254FF480744FF400704FF4AD
:108D00008052C3F80C55C3F80C45C1F80C05C3F8E4
:108D10000C2530BC704700BF000300500A4B195CA3
:108D20001F298ABF09484FF0A04001F01F01D0F869
:108D3000043501228A4022EA03011340C0F80815D5
:108D4000C0F80C35704700BFC8EE020000030050A9
:108D5000034BD3F810056FEA901000F00100704744
:108D600000030050263818BF4FF0FF30704700BF97
:108D700026207047C30706D4830742BF2E4B0C2220
:108D8000C3F81827704770B44FF08043D3F84036CB
:108D9000DA0722D44FF0A0432749032240264FF49C
:108DA00080754FF40074C3F81827C3F82027C1F862
:108DB0002427C3F83027C3F808654FF48052C3F85E
:108DC0000855C1F808458107C3F8082503D51A4B93
:108DD0000C22C3F8182770BC70474FF01023D3F84B
:108DE000043303F00703072BD4D1144B0122C3F83B
:108DF0000425D3F80024002AFBD04FF010210020D6
:108E0000D1F804230D4C22F0070242F00402C1F80D
:108E10000423C3F80405D4F80034002BFBD0BFF3BF
:108E20004F8F0749074BCA6802F4E0621343CB60D7
:108E3000BFF34F8F00BFFDE70003005000E001408B
:108E400000ED00E00400FA0510B570B101280BD167
:108E50000D4C2369A0703BB1D3E9002301202261AE
:108E600098472369002BF7D110BD074CA368012256
:108E70006270002BF8D0D3E900230020A26098474D
:108E8000A368002BF7D1EFE73836002070B910B592
:108E9000074CA368012262703BB1D3E90023002094
:108EA000A2609847A368002BF7D110BD704700BFA0
:108EB0003836002030B5012883B01CD015D30328E4
:108EC00011D100F0CDF802A800231F4C00F8013D9D
:108ED000FEF7ECFEE368013BE360E56865B39DF8EF
:108EE0000700FEF709FF03B030BD184B0122C3F89D
:108EF000802003B030BD02A80023134C00F8013DD0
:108F0000FEF7D4FE237853B1E3689DF807000133E0
:108F10000122E360A270FEF7EFFE03B030BD0C4803
:108F20006360A3602361E36000F08CF804F036F91D
:108F300030B101232370E7E700F0A4F8A570CEE775
:108F400000F08EF8F5E700BF3836002000E100E0C1
:108F5000498E020030B585B0047845688DF8004030
:108F6000D0E90240064A074B039053F8213001959F
:108F70008DF8084052F821106846984705B030BD7A
:108F80004C3600205436002030B585B00478456852
:108F90008DF80040D0E90240064A074B039053F891
:108FA000213001958DF8084052F821106846984705
:108FB00005B030BD4C360020543600202DE9F0437A
:108FC000DFF8748006784B7F08F806300D460746B8
:108FD00096460FCD89B06C460FC495E80F003D78DA
:108FE000DFF85890DFF858C018F8055049F826E027
:108FF00084E80F004CF82600049665B1BEF1000F1E
:109000000B4A694607F1040008BF002201F09EF8F0
:1090100009B0BDE8F083BEF1000F064A694607F1CA
:109020000C0008BF002200F0F9FD09B0BDE8F08394
:10903000558F0200898F02006C40002054360020BA
:109040004C360020054A13792BB901211060537169
:109050001846117170478520704700BF5C360020AC
:10906000074B1A68D20704D4C021012283F80013E9
:109070001A604FF080430122C3F81825704700BFE3
:1090800000E100E0044B01221A604FF08042D2F868
:109090001834DB03FBD470470C00004010B5154BAF
:1090A0001A6882B07AB10021134A19601B6850799E
:1090B00000934FF080410123009CC1F8083310B9A0
:1090C0001168537188470D4B1A6882B100221A60EB
:1090D0001B6801934FF080420221074B0198C2F8B0
:1090E00008131B68012002B0BDE81040184702B009
:1090F00010BD00BF000100405C36002004010040AC
:1091000030B5204C94F86A5083B0002D36D14FF022
:10911000FF332946062204F16400C4E90033C4E9A0
:109120000233C4E90433C4E90633C4E90833C4E9AB
:109130000A33C4E90C33C4E90E33C4E91033C4E97B
:109140001233C4E91433C4E91633236604F040FA39
:109150000D4A0E4B0E491D60C02082F806034020C8
:1091600010601B68019301984FF0004301222846CC
:1091700084F86A20C1F8043303B030BD082003B07E
:1091800030BD00BF6436002000E100E07C6100409B
:1091900000600040034B93F86A00003018BF0120C4
:1091A000704700BF64360020F0B5744B1C1894F96A
:1091B0003050002D6ADA8E78C6F340069646002EAF
:1091C0005ED11D6A013500F0C48009240C2553F8D6
:1091D000247001375DD004F1010C53F82C70013775
:1091E00000F0C280A71CAF4248D253F827200132BA
:1091F00000F0BC8004F1030CAC453FD253F82C7056
:10920000013700F0B18004F1040CAC4536D253F8BC
:109210002C70013700F0A88004F1050CAC452DD26C
:1092200053F82C70013700F09F8004F1060CAC4518
:1092300024D253F82C70013700F0968004F1070C0B
:10924000AC451BD253F82C70013700F08D8004F12F
:10925000080CAC4512D253F82C70013700F0848012
:1092600004F1090CAC4509D253F82C7001377BD0BE
:109270000A34AC4202D2DC6A013409D00420F0BDC9
:109280001D68013574D001240825A0E70820F0BD31
:109290000B241F1865B243F824E087F83050002EE5
:1092A0005ED08A7854071AD4D60741D41F284A784A
:1092B00087BF334E00F01F0404464FF0A04604F56C
:1092C000E074920046F824202E4EC40800F0070CEB
:1092D000375D012202FA0CF23A4332558A780C7853
:1092E00012F0020209D1083D2B44104693F8602089
:1092F00042EA841483F86040F0BDAB0003F1804380
:1093000003F5C0430202D3F8101521F44F3121F4C4
:109310004071C3F810152404D3F8101504F4403438
:1093200002F47C5222430A43C3F810250020F0BD0A
:109330001F2887BF124A00F01F0404464FF0A042C6
:1093400002EB8402D2F8004724F00204C2F800477E
:10935000BAE7082684F83060C3F820E03546344682
:109360001C4484F858009CE7644692E73C4690E72A
:1093700000251A6084F8305093E700BF643600205F
:1093800000030050C836002070B43A4D2E1883B048
:1093900096F93030072B20DD2B4493F858309B0989
:1093A000032B45D0012B14BF4FF440314FF4003153
:1093B0001F284DD900F01F002F4B03EB8000D0F881
:1093C000002722F44032C0F80027D0F800370B43C2
:1093D000C0F8003703B070BC7047DAB2072AF9D87A
:1093E000980000F1804000F5C04003F14002D0F841
:1093F0001045920092B244F0010402F18042C0F89C
:10940000104502F5C04200200190019C1060002927
:10941000E0D096F9302055F82220002ADAD0012237
:10942000164902FA03F3C1F8043303B070BC704765
:109430001F2810D9104BD3F8103500F01F00C3407F
:1094400013F0010F0CBF4FF400314FF44031B3E77C
:109450004FF0A043B1E74FF0A0421346D2F81025D9
:10946000C24012F0010F14BF4FF440314FF40031ED
:10947000A3E700BF643600200003005000600040F6
:109480001F288ABF054B4FF0A04300F01F00D3F800
:10949000103523FA00F000F001007047000300507F
:1094A0002DE9F047002388B0CDE90233CE4A166893
:1094B000012E00F03B821E46CC4B1A68012A00F0B8
:1094C0002782CB4B1A68012A00F01482C94B1A6814
:1094D000012A00F00182C84B1A68012A00F0EE81CF
:1094E000C64B1A68012A00F0DB81C54B1A68012AB5
:1094F00000F0C881C34B1A68012A00F0B581C24B45
:109500001A68012A0FD100221A601B6801934FF0DC
:10951000A042019BD2F81025BC4B0292D3F8103523
:10952000039346F0004616F0FF0F1AD0B84F002400
:109530000125A30003F180432E4203F5C0434FEA07
:1095400045050BD0D3F8100557F82420D3F8101593
:10955000C0F30520C1F3014102B190470134082C4A
:10956000E7D1002E02DB08B0BDE8F087A84CA74F7A
:109570004FF0FF33CDE9063394F960300DF1100858
:1095800000225D1CC8F8042004924FF0010600F090
:10959000F4805FFA83FC2CF0C00008AB4FEAD009DE
:1095A00003EB090E0CF007031EF8082C06FA03F370
:1095B00012EA030521D022184FEA9C1192F93020BB
:1095C00054F82220002A00F02981032900F0288184
:1095D0001F2800F2F98005464FF0A04C0CEB850CDB
:1095E0001EF8185CDCF800E71D40CEF3014E40F099
:1095F000DF80BEF1030F00F0BF8194F96130581C89
:1096000032D0DBB223F0C00008AA4FEAD00E02EB42
:109610000E0C03F007011CF8082C06FA01F912EAF7
:10962000090F21D02218990992F9302054F82220EC
:10963000002A00F0FB80032900F0FB801F2800F2C5
:10964000E98003464FF0A04E0EEB83031CF818ECA4
:10965000D3F800C71EEA090FCCF3014C40F0B880E4
:10966000BCF1030F00F0AE8194F96230591C30D088
:10967000DBB223F0C00008AA4FEAD00E02EB0E0CBA
:1096800003F007011CF8082C06FA01F912EA090F89
:109690001FD02218990992F9302054F82220002A6C
:1096A00000F0D880032900F0D8801F287CD803461A
:1096B0004FF0A04E0EEB83031CF818ECD3F800C754
:1096C0001EEA090FCCF3014C64D1BCF1030F00F08A
:1096D000658194F963305A1C34D0DBB223F0C000AA
:1096E00008AA4FEAD00E02EB0E0C03F007021CF89A
:1096F000081C06FA02F2114224D004EB0009990971
:1097000099F9309054F82990B9F1000F00F0988041
:10971000032900F098801F288BBFBE464FF0A04E53
:1097200003F01F0303460EEB83031CF818ECD3F879
:1097300000C71EEA020FCCF3014C20D1BCF1030F8D
:1097400000F00181002D3FF40EAF4FF0A0430299CD
:10975000D3F81035D7F81025994203D103999142D7
:109760003FF401AFDDE90401CDE9023294F9603044
:109770005D1CCDE906017FF40CAF00253DE7BCF18F
:10978000020FDFD1032900F03481B9F1000F40F05E
:10979000F180D7E7BCF1020F9BD1032900F02681AD
:1097A000002A96D0904794E703F01F03BE4681E756
:1097B000BEF1020FE1D1032900F021810025002A2A
:1097C0003FF41BAF904718E70CF01F05BC4605E7B8
:1097D000BCF1020F7FF448AF032900F00D81002A8D
:1097E0003FF442AF90473FE7006100400461004012
:1097F000086100400C6100401061004014610040AD
:10980000186100401C6100407C6100400003005072
:109810006436002003F01F03BE4615E70329ACD1D0
:1098200018F809501D4308F80950D1E603297FF4C0
:109830001BAF18F80EA04AEA090A08F80EA0FDE6C8
:1098400003297FF47FAF18F80EA04AEA020A08F84D
:109850000EA060E703297FF43CAF18F80EA04AEA97
:10986000090A08F80EA020E7664AD2F80423170672
:109870007FF545AE00221A601B680093009B46F0FE
:1098800080063CE65F4AD2F8042352067FF532AEEA
:1098900000221A601B680093009B46F0400629E6F0
:1098A000584AD2F8042391067FF51FAE00221A60B1
:1098B0001B680093009B46F0200616E6514AD2F83A
:1098C0000423D0067FF50CAE00221A601B680093BB
:1098D000009B46F0100603E64A4AD2F80423140718
:1098E0007FF5F9AD00221A601B680093009B46F0DB
:1098F0000806F0E5434AD2F8042355077FF5E6ADA4
:1099000000221A601B680093009B46F00406DDE508
:109910003C4AD2F8042397077FF5D3AD00221A60A2
:109920001B680093009B46F00206CAE53549D1F852
:10993000041311F0010104D0136013680093009B1D
:10994000BAE50E46B8E503297FF41FAF4FF4003C9B
:10995000D3F8002722F44032C3F80027D3F80027B9
:10996000013542EA0C02EDB2C3F80027B9F1000F4D
:109970003FF4EBAEC847E5E603297FF420AF4FF490
:109980000035DCF8003723F44033CCF80037DCF83E
:1099900000372B43CCF80037012510E703297FF46B
:1099A000FFAE4FF4003ED3F800C72CF4403CC3F8A0
:1099B00000C7D3F800C701354EEA0C0CEDB2C3F86E
:1099C00000C7EDE603297FF40AAF4FF4003ED3F859
:1099D00000C72CF4403CC3F800C7D3F800C70135DA
:1099E0004EEA0C0CEDB2C3F800C7F8E64FF4403E67
:1099F000D9E74FF4403CABE74FF4403EE7E74FF484
:109A00004035BEE700600040014B1B68184700BFAF
:109A1000D0360020104B984201D00020704730B55E
:109A200083B002A8002300F8013D0D46FEF73EF981
:109A30000A4B1C7934B19DF80700FEF75DF911203F
:109A400003B030BD01229DF807001D601A71FEF7BA
:109A500053F92046F4E700BF00200040D036002034
:109A600030B56C4AD2F8043399058BB066D5D2F87C
:109A70002431002B62D00023C2F82431D2F82431E3
:109A800003934FF40171644B0398C2F8081393F8E1
:109A9000291009B9012151605E4902228DF8182070
:109AA000D1F88024C1F880249869D96809920022ED
:109AB000CDE90710C3E90622D3E9001406A8A047A0
:109AC000544AD2F81C31BBB1534B186A59698842C9
:109AD00069D350480022C0F81C21D0F81C01019025
:109AE000019849B198688DF8182008915A6107903B
:109AF000D3E9001206A89047464AD2F84431DBB1B8
:109B00000021454BC2F84411D2F8440193F82910C2
:109B10000090009809B1012111609A6962B1002298
:109B2000586AD9689A610122CDE907108DF818208A
:109B300006A8D3E9001290470BB030BD354AD2F8E1
:109B400004335B07BCD5D2F80831002BB8D0324BB8
:109B5000996900293CD00021C2F80811D2F80811F7
:109B600004910499D868596AD2F8182542545A6A5F
:109B7000996901325A625A6A8A42A1D1DA6919682E
:109B8000002A2ED0D8685D6A1C699A61079000226D
:109B90000120DC60DA615A628DF8180008955B6874
:109BA00006A898478CE793F8280000F0FF040028E7
:109BB0008FD1C2F81C41D2F81C11029102999C6805
:109BC000186A196A205C01311962C2F81C0593E712
:109BD000C2F80811D2F8080105900598D2F81825A6
:109BE000C9E793F8292012B90A4A01205060094AAE
:109BF0004FF40170C2F80803586ADA68089000242C
:109C0000012007928DF818005A689C6106A89047B9
:109C100056E700BF00200040D83600202DE9F04173
:109C2000714F06792C2505FB067582B095F82A3010
:109C3000002B40F09A800D4604466C49006890461F
:109C4000FFF7E8FE002840F08C802B68591C19D0E3
:109C50001F2B4FF001028ABF65494FF0A04103F06E
:109C60001F0302FA03F3C1F808352B681F2B86BFC8
:109C700003F01F035E4A4FF0A04203F5E073032197
:109C800042F823106B685A1C0BD01F2B86BF03F0C1
:109C90001F03574A4FF0A04203F5E073002142F83A
:109CA00023102368AA69C3F82425297D6B7D2268C7
:109CB0000B43C2F86C35D5E900122368C3F81425AC
:109CC000C3F80C152B7D012B53D02C2303FB06F37B
:109CD000FA18C2F804802A69FA50B8F1000F2DD0A2
:109CE00022682B7F434D0021C2F81C11D2F81C21A1
:109CF00000922268DDF800C0C2F84411D2F8441185
:109D0000226801910199C2F804532168090B4AB2F3
:109D10005B01002ADBB261DB02F1604202F56142C5
:109D200082F800332368344D1B0B5AB2520903F0FA
:109D30001F03012101FA03F345F822302C23246884
:109D400003FB0673002204250121C4F8005583F8A3
:109D50002A10C3E9062283F829205A6102B0BDE81F
:109D6000F081112002B0BDE8F081082002B0BDE80A
:109D7000F081AB68591C0BD01F2B86BF03F01F036B
:109D80001B4A4FF0A04203F5E073002142F8231074
:109D9000EB685A1C1BD01F2B4FF001028ABF1449DD
:109DA0004FF0A04103F01F0302FA03F3C1F8083596
:109DB000EB681F2B88BF03F01F0303F5E0738CBF14
:109DC0000B4A4FF0A042032142F82310EB682268AF
:109DD000A968C2F80835C2F8101576E7074A01F0FD
:109DE0000F010A4413769DE7D8360020619A0200DD
:109DF000000300508000020000E100E0FCEC00E005
:109E0000F0B5314E05792C2303FB056385B05C6901
:109E1000002C53D11C62996083F828405A61026873
:109E2000C2F81C41D2F81C11026802910121029F64
:109E300091600268D3F808C0C2F81C41D2F81C1126
:109E400001910199D3F820E0196A5F681CF80EE0CF
:109E500001311962C2F81CE517B1204605B0F0BD0A
:109E60001A6A5C690168944203D819E093F82820C3
:109E70003ABBD1F81C21002AF8D0C1F81C71D1F8E6
:109E80001C210392039AD3F820E01A6A1CF80EE012
:109E900001321A62C1F81CE51A6AA242E9D30168CC
:109EA000D1F81C31002BFBD00123CB6000202C23E8
:109EB00003FB056500236B6105B0F0BD112005B003
:109EC000F0BD0F20F3E700BFD83600200379044A25
:109ED0002C2101FB03235869003018BF0120704773
:109EE000D8360020F0B4514D04792C2303FB0453E1
:109EF00086B05F6827B103684FF40176C3F8086342
:109F00002C2303FB04539E696EB1DE690EB3002F50
:109F100000F0848003684FF401721120C3F8042319
:109F200006B0F0BC704793F829709A61D9605E6200
:109F3000DE61002F60D02C2202FB045201685368BE
:109F400053B14FF40173C1F80433002006B0F0BCE4
:109F500070471961DA61EEE7C1F84431D1F8443154
:109F60000393039B0368D3F82461D3F80871D3F8F3
:109F7000441157B9002936D1002EF4D02C2303FB0D
:109F800004540023A3610320E0E7002EF6D161BB57
:109F9000966996B1C3F80811D3F808110491049991
:109FA000D668516AD3F818357354536A91690133EE
:109FB0005362536A9942D5D808E0C3F80861D3F8D0
:109FC000081105910599D3F81835536A2C2303FB22
:109FD0000454002294F82930A2610BB303680121D4
:109FE00010461960B2E7002EC8D12C2303FB04549D
:109FF0000023A3610F20A9E70368C3F82471D3F8F5
:10A00000242103680192019AC3F80871D3F808214A
:10A0100003680292012202991A608CE7112095E7E9
:10A02000026801211846516090E700BFD836002031
:10A03000F0B5444BD3F8242189B0002A52D0002136
:10A04000C3F82411D3F82421029202228DF81020A3
:10A05000029AD3F880043C4AC3F880040790D3F8EE
:10A060003C05D3680690C2E9061105931168536850
:10A0700004A89847334BD3F84421BAB10021324A9F
:10A08000C3F84411D3F8444190690194019C68B12C
:10A09000D3F83C35D06806930123C2E90611059038
:10A0A0008DF8103004A8D2E900139847254BD3F857
:10A0B0002021AAB10021C3F82011D3F82001224A9F
:10A0C00000900098506958B1D3F84C0593680690F9
:10A0D0008DF810105161059304A8D2E90013984738
:10A0E00009B0F0BDD3F810110029C3D0C3F8102176
:10A0F000D3F810111448039103998169D3F83C45B2
:10A100008C42B7D1C569C768D0E900168DB1D3F8C4
:10A1100000C285612CF02005C261C3F800520369BA
:10A12000C3600122CDE905748DF8102004A8B04762
:10A13000A0E701238561CDE905748DF8103004A8EE
:10A14000B04797E700200040043700202DE9F04396
:10A1500007797A4E4FEAC70808EB070306EB83033B
:10A1600085B093F82030002B40F0A8800D460446BF
:10A17000734900689146FFF74DFC002840F09A8033
:10A180002B68591C19D01F2B4FF001028ABF6D4953
:10A190004FF0A04103F01F0302FA03F3C1F80835A2
:10A1A0002B681F2B86BF03F01F03664A4FF0A042A7
:10A1B00003F5E073032142F823106B685A1C0BD09F
:10A1C0001F2B86BF03F01F035E4A4FF0A04203F52A
:10A1D000E073002142F823102368AA69C3F82425FC
:10A1E000297D6A7D23680A43C3F86C25D5E90031CF
:10A1F0002268C2F80C35C2F814152B7D012B61D0F2
:10A2000008EB07029200B318C3F804902B69B3500F
:10A21000B9F1000F3DD021682B7F4B4D0022C1F8D2
:10A220001021D1F8101100912168DDF800C0C1F8AB
:10A230002021D1F8201101912168DDF804C0C1F876
:10A240002421D1F8241102912168DDF808C0C1F859
:10A250004421D1F84411226803910399C2F80453B0
:10A260002168090B4AB25B01002ADBB25FDB02F115
:10A27000604202F5614282F800332368334D1B0BC4
:10A280005AB2520903F01F03012101FA03F345F802
:10A2900022304744226806EB870600230124082168
:10A2A000C2F8001586F82040C6E90633736105B090
:10A2B000BDE8F083112005B0BDE8F083082005B0AB
:10A2C000BDE8F083AB68591C0BD01F2B86BF03F091
:10A2D0001F031C4A4FF0A04203F5E073002142F82F
:10A2E0002310EB685A1C1BD01F2B4FF001028ABFB2
:10A2F00014494FF0A04103F01F0302FA03F3C1F821
:10A300000835EB681F2B88BF03F01F0303F5E073CC
:10A310008CBF0C4A4FF0A042032142F82310EB6897
:10A320002268A968C2F80835C2F8101568E7084A1B
:10A3300001F00F010A4413769FE700BF04370020A5
:10A3400031A00200000300501003020000E100E011
:10A35000FCEC00E001F06043B3F1005F2CD1F0B4FD
:10A360000579244EEF007C1906EB840482B0636902
:10A3700023BB6261A1600268C2F82031D2F820C11B
:10A380000268CDF804C0DDF804C0C2F85831D2F834
:10A39000582100920268DDF800C0D4F814C0C2F859
:10A3A0004415C2F848C502680121916062684AB14B
:10A3B000184602B0F0BC704710207047112002B060
:10A3C000F0BC7047036800E08AB9D3F82011D3F8D5
:10A3D00058210029F8D0002A14BF0F2000207B1933
:10A3E00006EB830300225A6102B0F0BC70470F20D5
:10A3F000F5E700BF043700200379054A03EBC303E8
:10A4000002EB83035869003018BF0120704700BF7A
:10A410000437002001F06043B3F1005F7ED1F0B457
:10A420000579464CEB005E1904EB860682B076682F
:10A4300026B107684FF4047CC7F808C32B4404EB2B
:10A4400083039D69002D42D19A61DD61D960036863
:10A45000C3F81051D3F8106103680196019EC3F848
:10A460004451D3F8445103680095009DC3F8341556
:10A47000C3F83825036801221A6005790368EE00E5
:10A48000721904EB820252685AB14FF40472C3F895
:10A490000423002002B0F0BC7047002942D10028FC
:10A4A00046D1D3F81021D3F84411D3F82401002A5F
:10A4B000F3D0354400284FF0000304EB850414BFAB
:10A4C000032018469942A36118BF0F20E2E7DD6917
:10A4D0003DB12EB303684FF40472C3F80423112076
:10A4E000D8E71961DA610368C3F81051D3F8106135
:10A4F00003680196019EC3F84451D3F844510368A0
:10A500000095009DC3F83415C3F838250268D2F8C9
:10A51000003243F02003C2F80032AEE7102070474B
:10A520001120B7E7354404EB85040F20A261B1E7A1
:10A53000354404EB85040320A161ABE70437002018
:10A540000220FEF7EBBB00BF2DE9F0410C460546AB
:10A55000FEF708FCB8B9012C17D00BD3022C12D18E
:10A56000134B5C787CB1134B1B6863B12046BDE88C
:10A57000F04118471048FDF7F3F90D4A0F4B947856
:10A580001B78A342EED0BDE8F081094E7378347891
:10A590001BB90A4BB2781A70E4E7094F06483A46ED
:10A5A0004FF40041FDF786F90028F2D13D70F0E745
:10A5B0008C370020983700204C370020A03700202F
:10A5C0002837002010B50078FEF7CCFB40B9054BCA
:10A5D000587828B1044B1B6813B1BDE810401847E8
:10A5E00010BD00BF8C37002098370020B44B1B688B
:10A5F000DB0700D4704770B5B24DB34E2B7834787A
:10A600006BB1B24B1B7800202870002B4BD0FEF7AB
:10A6100041FB0120FEF73EFB0320FEF73BFB172C1E
:10A6200040D8DFE814F0B600F400F400DC000801C4
:10A63000CA001301EE0050004300500043006100C7
:10A6400018001800180018001800660077008B002A
:10A650009F005D005D009E48FDF782F9D4F1110472
:10A66000054600F00081002840F0FD80012C13D049
:10A67000C82303FB04F44FF4FA704FF400430021A5
:10A68000C3FB04014FF47A72002303F02DFF2A4626
:10A6900001468F48FDF70EF90220FEF7E7FA8B4BD3
:10A6A00001221A7070BDFEF709FBB8E701231846B6
:10A6B0002B70FEF733FB00224FF480418548BDE844
:10A6C0007040FDF7F7B8012318462B70FEF726FB04
:10A6D000002240F6CD417F48BDE87040FDF7EAB862
:10A6E000FEF704FB347070BDFEF700FB0C233370E3
:10A6F00070BD764B1B78002B00F0BF800020FEF76A
:10A70000C9FA0120FEF7C6FA0320FEF7C3FA1223A6
:10A71000337070BD6D4B1B78002B00F0B1800020B2
:10A72000FEF7B8FA0120FEF7B5FA0320FEF7B2FAF9
:10A730000020FEF79BFA1323337070BD634B1B7828
:10A74000002B00F0AD800020FEF7A4FA0120FEF7F8
:10A75000A1FA0320FEF79EFA0120FEF787FA1423E0
:10A76000337070BD594B1B78002B00F083800020A4
:10A77000FEF790FA0120FEF78DFA0320FEF78AFA21
:10A780000020FEF773FA0120FEF770FA15233370EC
:10A7900070BD4E4B1B78002B00F08A800020FEF726
:10A7A00079FA0120FEF776FA0320FEF773FA49489A
:10A7B000FDF7D6F80023337070BD0020FEF742FA93
:10A7C000002860D00020FEF765FA052333700022D0
:10A7D00041F69A113F48BDE87040FDF76BB8002084
:10A7E000FEF730FA00285ED00020FEF753FA46F25A
:10A7F00066610323337000223648BDE87040FDF7E0
:10A8000059B80020FEF732FA0723337070BD0020DC
:10A81000FEF718FAD0B30020FEF73CFA022C4EF2F5
:10A82000666118BF4FF40031347000222948BDE83A
:10A830007040FDF73FB80020FEF704FAD8B30020BF
:10A84000FEF728FA4FF400310423D3E70020FEF787
:10A8500065FA06233370002240F6CD411D48BDE85D
:10A860007040FDF727B80220FEF714FA174B0022BC
:10A870001A7070BDFEF722FA82E7FEF71FFA46E76C
:10A88000FEF71CFA54E7FEF7F1F99EE7FEF7EEF942
:10A8900043F2333141F69A13022C08BF1946C3E73D
:10A8A000FEF70CFA58E7FEF7E1F941F69A11A0E736
:10A8B000FEF704FA7BE7FEF7D9F943F23331C3E739
:10A8C00090370020943700209C3700202937002043
:10A8D0002C3700206C37002008B100207047FEF7AD
:10A8E00037BA00BF38B5C54B1C6814F0010401D15C
:10A8F000204638BDC24C2378054663B1C14B1B7856
:10A900000020207023B3FEF7C5F90120FEF7C2F93D
:10A910000320FEF7BFF9172D00F26D81DFE815F077
:10A92000C300EC00EC001001D90023010201360144
:10A9300028001B0028001B006A00710071007100D4
:10A94000710071009A00AD0035004B006400640096
:10A95000FEF7B4F9DFE7012318462370FEF7DEF9AE
:10A9600000224FF48041A848BDE83840FCF7A2BF60
:10A97000012318462370FEF7D1F9002240F6CD419D
:10A98000A148BDE83840FCF795BF9E4B1B78002BD3
:10A9900000F016810020FEF77DF90120FEF77AF91C
:10A9A0000320FEF777F90120FEF760F9974B142298
:10A9B0001A7000249CE7934B1B78002B00F0038156
:10A9C0000020FEF767F90120FEF764F90320FEF787
:10A9D00061F90020FEF74AF90120FEF747F98B4B99
:10A9E00015221A70002483E7FEF780F9874B0024B4
:10A9F0001D707DE7FEF77AF9844B0C221A70002453
:10AA000076E78348FCF7ACFF0446D5F1110000F06F
:10AA1000C580002C40F0C280012814D0C82505FB59
:10AA200000F54FF400434FF4FA700021C3FB050119
:10AA30004FF47A72002303F057FD22460146744812
:10AA4000FCF738FF04460220FEF710F96D4B012297
:10AA50001A704DE76B4B1B78002B00F0AE80002086
:10AA6000FEF718F90120FEF715F90320FEF712F999
:10AA7000664B12221A7000243AE7624B1B78002BB7
:10AA800000F093800020FEF705F90120FEF702F99F
:10AA90000320FEF7FFF80020FEF7E8F85B4B1322D7
:10AAA0001A70002424E7574B1B78002B00F08E808F
:10AAB0000020FEF7EFF80120FEF7ECF80320FEF788
:10AAC000E9F85148FCF74CFF504B002204461A703D
:10AAD0000EE70020FEF7B6F8002869D00020FEF748
:10AAE000D9F84FF40031494B474804241C70002228
:10AAF000BDE83840FCF7DEBE0020FEF7A3F80028D2
:10AB00006CD00020FEF7C6F8022D4EF2666118BF29
:10AB10004FF400313D4B3C481D700022BDE83840E9
:10AB2000FCF7C8BE0020FEF7F9F8384B364806247B
:10AB30001C70002240F6CD41BDE83840FCF7BABE9B
:10AB40000020FEF77FF8002843D00020FEF7A2F88F
:10AB500046F266612D4B2C4803241C700022BDE890
:10AB60003840FCF7A7BE0020FEF76CF800283FD065
:10AB70000020FEF78FF8254B234805241C70002287
:10AB800041F69A11BDE83840FCF794BE0020FEF76C
:10AB90006DF81E4B07221A700024A9E60220FEF76A
:10ABA00079F8184B00221A70A2E6FEF787F872E7D0
:10ABB000FEF75CF843F2333195E7FEF77FF857E78D
:10ABC000FEF77CF8EFE6FEF779F802E7FEF776F895
:10ABD00077E7FEF74BF841F69A11BBE7FEF746F828
:10ABE00043F2333141F69A13022D08BF194691E71B
:10ABF000FEF73CF8BFE700247AE600BF903700205C
:10AC000094370020293700206C3700209C37002023
:10AC10002C37002038B5214B214A1960830710607A
:10AC200000F0010503D49DB92C46204638BD1D4BCC
:10AC30001D480E241C7040F266620121FCF7C6FA22
:10AC40000446B8B115B10120FEF794F8204638BD8E
:10AC50000120FEF78FF8154A15480021FCF718FE71
:10AC600004460028F2D1134A13480121BDE83840B8
:10AC7000FCF70EBEFCF702FB04460028E2D10146B9
:10AC80000E4A0F48FCF704FE0446002DDED00120DA
:10AC9000FEF770F8002CDED0D8E700BF9837002010
:10ACA000903700208C370020F8EE0200EDA502005E
:10ACB00008EF020041A5020000EF0200C5A5020056
:10ACC00004EF020070B9012A08D0012911D00BD37A
:10ACD000022907D1094B00205A707047012907D07B
:10ACE0000246F2E707207047044B00209A70704735
:10ACF0000E22024B00201A70704700BF8C370020D4
:10AD0000C8B908B5FEF734F81F2886BF0B4B00F012
:10AD10001F004FF0A04303EB80030020D3F800276F
:10AD200022F44032C3F80027D3F8002742F440321F
:10AD3000C3F8002708BD0620704700BF000300507D
:10AD400010B50388102B07D0112B04D1254B1868A0
:10AD50000138186030B110BD224C216881B1013139
:10AD6000216010BD01220221FFF7ACFF38B3072894
:10AD700025D01D4B1B68002BEDD0BDE810401847B7
:10AD800001220846FFF79EFF38B1072805D0164B71
:10AD90001B6803B198472168E1E7072202210120DF
:10ADA000FFF790FF08B10728F1D10422022100200B
:10ADB000FFF788FF0028EED00728E8D1EBE707224D
:10ADC00002210120FFF77EFF08B10728D1D1002121
:10ADD00008460A22FFF776FF0028BCD00728C8D112
:10ADE00010BD00BFA8370020A437002008B5002000
:10ADF000FFF786FF10B1062800D008BD0120FFF73D
:10AE00007FFF0028F9D0062808BF002008BD00BF3A
:10AE1000184B10B5186031B101200C46FFF75CFDEE
:10AE2000F8B102232370144B186808B1002010BD3C
:10AE300001220221FFF746FF08B10728F7D10722B8
:10AE400002210120FFF73EFF08B10728EFD10021C2
:10AE500008460A22FFF736FF0028E7D00728E5D08A
:10AE600010BDFFF739FD08B92070DCE70B23237014
:10AE7000D9E700BFA4370020A837002075DF70474E
:10AE800076DF70477FDF70478FDF704701460148EC
:10AE900001F0CABFA438002030B50388103B83B04E
:10AEA0000446462B2FD8DFE803F0384B2E592E2EC0
:10AEB0002E2E2E2E2E622E2E2E702E242E2E2E2E46
:10AEC0002E2E2E2E2E2E2E2E2E2E2E2E2E2E2E2EA2
:10AED0002E2E2E2E2E302E2E2E2E2E2E2E2E2E2E90
:10AEE0002E2E2E2E2E2E2E2E2E2E2E2E2E2E2E2E82
:10AEF000300002A9002321F8043D8088FFF7C4FF39
:10AF000008B1FCF7D1F903B030BD80881321FFF7F9
:10AF1000B7FF0028F5D103B030BD81882248002258
:10AF200002F0A2F800283BD10720FFF7DBFC002845
:10AF300033D1A1881D4800F08DFD0028E3D0E0E763
:10AF40001B4D1C48237AA2881B49401BC0080004E3
:10AF500040F00300FBF77EFD03B030BD0023808886
:10AF60001A468521FFF78EFF0028CCD0C9E7037A67
:10AF7000022BC8D10E4B0F481049C01AC00800045C
:10AF800040F00300FBF738FBBDE700F108018088C3
:10AF9000FFF774FF0028B6D0B3E7FCF785F9C8E7E0
:10AFA000FCF782F9C0E700BFA4380020042A002083
:10AFB0007CF80200A4F8020024EF020054EF020023
:10AFC00070B50378012B044632D010D3022B2ED15A
:10AFD0001C481D4B1D49C01AC008000440F0010068
:10AFE000FBF70AFB6068BDE87040FCF75DB9184CE0
:10AFF000184D20882844FCF7F1FD2288013292B2D6
:10B000001544228015F8013C0A2B03D0124B1B88F3
:10B0100093420CD80F4E114D3146284601F0E2FF05
:10B02000082802D0132807D040B90023238070BD20
:10B030000448054B0A49CEE72288EDE7FCF734F9CE
:10B04000F3E700BFA4F802007CF80200ECF0020075
:10B05000A0380020AC370020002A0020A4380020AF
:10B0600020F1020010B504460020FFF73BFC10B9A8
:10B070002CB1012010BDFCF717F9002CF9D1FFF716
:10B08000B5FE0028F5D0FCF70FF9012010BD00BF78
:10B090000A8840F677239A4200D0704770B50C4B6F
:10B0A0000C4D0D4EED1AED082D0445F003050C4630
:10B0B00028460A49FBF7A0FAA4880949033CA4B230
:10B0C0002846234622463480BDE87040FBF7C2BCC8
:10B0D0007CF80200A4F80200002A00201CF0020004
:10B0E00038F00200042805D00A2802D10020FDF71C
:10B0F000FBBB704708B5064B13215888FFF7C0FE0D
:10B1000030F0080300D108BDBDE80840FCF7CCB81A
:10B11000A43800200378062B36D030B5072B85B035
:10B120001BD0042B01D005B030BD1B4B1B481C4964
:10B13000C01AC008000440F00300FBF75DFA19488C
:10B1400001F018FD20BB0120FFF7CCFB0028EAD05E
:10B1500005B0BDE83040FCF7A7B841680F488C79CE
:10B160008B784A7803944D790B4C02950D790195B3
:10B17000001BC008C9780091000440F003000A4990
:10B18000FBF7EAFC05B030BD40680028E3D170470A
:10B19000FCF78AF8D7E700BF7CF80200A4F80200A9
:10B1A000DCF00200C8380020ACF002002DE9F047C6
:10B1B0000B78012B0C4638D018D3022B14D1514BED
:10B1C00051485249C01AC008000440F00300FBF780
:10B1D00013FA4F4801F0CEFC002840F08C8001208B
:10B1E000FFF780FB00287FD1BDE8F087454B464D37
:10B1F0004849ED1AED082D0445F00305064628469A
:10B20000FBF7FAF904F10E026188304601F02CFFD9
:10B2100000286DD1304601F0C3FE002861D12846D8
:10B220003D49BDE8F047FBF7E7B9B1F80C90D1F81C
:10B2300008A0B9F1000F61D0334F324BDFF8E48042
:10B24000FF1AFF083F0447F00107554600262878FB
:10B25000FCF7F2FC044658B9731C4B4505F1010597
:10B2600015D028781E46FCF7E7FC04460028F3D0EA
:10B27000112C324641463846E9D0FBF76BFB20469D
:10B28000FCF712F8731C4B4505F10105E9D11AF8DA
:10B2900006300D2B1AD0214D4A465146284601F062
:10B2A000A1FE044600289FD01128F5D0154B164862
:10B2B0001B49C01AC008000440F001002246FBF7F9
:10B2C00049FB2046BDE8F047FBF7EEBF0A20FCF73C
:10B2D000B3FC1128DFD10A20FCF7AEFC1128F5D011
:10B2E000D9E7FBF7E1FF9AE7BDE8F047FBF7DCBFE2
:10B2F000FBF7DAFF8EE7FBF7D7FF70E74FF0FF367B
:10B30000C5E700BF7CF80200A4F802000CF00200C0
:10B31000C838002074EF020088EF0200A438002033
:10B32000E0EF0200B8EF020008B50949094801F052
:10B330004DFA48B9F721074801F060FA00B908BD95
:10B34000BDE80840FBF7B0BFFBF7AEFFF2E700BF78
:10B3500091B00200B438002000B54FF400418BB02A
:10B360000020FBF7E9F808B1FBF79EFFFBF76AF84E
:10B37000FCF73AFA08B1FBF797FF4A4D4A4B0093A6
:10B380000FCD04AC0FC495E80300484D484A84E84B
:10B39000030007234FF4807404A869460194CDE9A3
:10B3A0000254FCF7A1FB08B1FBF77EFF41490120E5
:10B3B000FFF730FC08B1FBF777FF04A90020FFF787
:10B3C00027FD08B1FBF770FF3B4800F0C3FA08B156
:10B3D000FBF76AFFFDF74AFA08B1FBF765FF01F0DA
:10B3E00053FE08B1FBF760FF002304A9012004937A
:10B3F00001F028FF08B1FBF757FF04A802F000F89E
:10B4000008B1FBF751FFFFF78FFF2C4B2C4804933B
:10B4100004A901F059FD08B1FBF746FF10220021F5
:10B420000DEB020002F0D4F8012304A9254A2648B6
:10B430008DF814308DF81C3001F040FB08B1FBF79B
:10B4400033FF224A2048032101F00AFB08B1FBF731
:10B450002BFF002204211C4801F020FB08B1FBF760
:10B4600023FF1B4802F0BCF81A4B1B481B49C01AAB
:10B47000C008000440F00300FBF7BEF8124801F0DA
:10B4800079FB08B1FBF710FF0120FFF72BFA08B199
:10B49000FBF70AFFFBF70AFC0028FBD1FDF7FCF9DC
:10B4A000F8E700BF0CEF020018390020183A00201E
:10B4B000C1AF0200E5B002008DAE0200ADB10200E6
:10B4C000A438002015B10200C838002060F0020046
:10B4D00064F002007CF80200A4F8020088F0020088
:10B4E0002DE9F84F4400DFF85CB126180BEBC606D7
:10B4F0008146F76A012F8A46904667D03DD3022FD6
:10B5000030D100F1010909EB4909756A4FEAC9090F
:10B510000027B36A346AAB4203F1FF329CBF1B19A8
:10B5200003F1FF33A4EB05048CBF531B5B1B0BEB38
:10B530000902444528BF44469C42506828BF1C4627
:10B5400028445146224602F038F8336A25449D4289
:10B550002744A8EB0408A24408D07562B8F1000F94
:10B56000D7D100E000273846BDE8F88F00231D46FC
:10B570007362B8F1000FCCD1F5E7B36A756AAB42DC
:10B580009CBF326A9B18013B5B1B9845EBD8044477
:10B5900000F101090BEBC40409EB49090BEBC90BE2
:10B5A000266ADBF80400761BB045284443D33246B4
:10B5B000A8EB060502F001F80AEB0601DBF804002F
:10B5C0002A4601F0FAFF47466562CCE7D6E908252E
:10B5D000B76AAF4298BFBF18461C013F06EB46064C
:10B5E0007F1B0BEBC606474528BF47467068A2EB9A
:10B5F00005084745284412D3A1444246A7EB080555
:10B600000BEBC90B01F0D9FF0AEB080170682A4661
:10B6100001F0D3FFCBF824503846BDE8F88FA144A1
:10B620000BEBC90B3A463D4401F0C7FFCBF8245061
:10B630003846BDE8F88F4246454401F0BEFF474614
:10B64000656290E77040002038B5114C114B1248EC
:10B65000E36110254FF40073104A11492362E0643E
:10B6600000232565E01D0225A3626362E362A365F2
:10B670006365E365A261A264C4E9045501F0C8FFF3
:10B680002046084901F0C4FF2023A37138BD00BF44
:10B6900070400020283B0020183B00204CF10200A5
:10B6A00058F102005CF1020064DF7047F0B587B02A
:10B6B00004460D461046102302AA0DF103018DF831
:10B6C0000330FFF7F1FF64B358BB9DF80320042A51
:10B6D0005CD0102A28D0022A24D140F20323ADF8EE
:10B6E000043094F801C09DF80400844553D0C5B1DE
:10B6F000002301E09D421CD9E15C01310B449BB267
:10B70000E11849788142F5D19D4205D9E75C0233C1
:10B71000013F9EB2BFB236BB9DF80500604544D0E4
:10B720005DB9002007B0F0BD40F20763ADF804300A
:10B73000D7E79DF80500604534D0002301E09D4225
:10B74000EFD9E15C01310B449BB2E1181E46497808
:10B750008142F4D19D42E4D9A75D0233013F9EB2FC
:10B76000BFB2002EDDD0002FDBD0002505E09DF814
:10B7700003201544ADB2BD42D3D2A819204402A97A
:10B7800001F00CFF0028F2D10120CBE740F2054385
:10B79000ADF80430A5E7002DBED02778013FBFB239
:10B7A0000226E0E700263346D4E7002DF5D1B8E7BE
:10B7B0009BDF70479DDF70479EDF7047F0B5324BCF
:10B7C0001D6890F8C632A1B01DB3C3EB0314C3EBE0
:10B7D00084035B00C6182D4CB678A778B74240D0DA
:10B7E000012D16D9A779B74241D0022D11D0A77AE1
:10B7F000B74210D0032D0CD0A77BB74225D0042D23
:10B8000007D0A77CB74226D0052D02D0A57DB54232
:10B8100033D021B0F0BDB4F808C0C75ABC45E9D157
:10B820001B4B1E68002EF4D015460C467C220021CE
:10B8300001A801F0CDFE012301A8ADF80650029445
:10B840008DF80430B04721B0F0BDB4F80CC0C75A31
:10B85000BC45D4D1E4E7B4F810C0C75ABC45D3D135
:10B86000DEE7B4F800C0C75ABC45B9D1D8E7B4F890
:10B8700004C0C75ABC45B8D1D2E7A48AC35A9C4277
:10B88000CED021B0F0BD00BF303D002038400020B8
:10B89000283D00202DE9F04190F8C64290F8C532CD
:10B8A000C4EB0415C4EB8504640000EB040E03EB49
:10B8B000C3069EF804C004EB46065D1C0A366545C7
:10B8C00082B006443AD0634530D2122515FB0344BA
:10B8D00004440CF1FF383589984505F1010610D074
:10B8E000658CAE4217D0013DADF80650ADF804604E
:10B8F00000230B70104601A9FFF75EFF02B0BDE800
:10B90000F081BEF80860AE4216D00135ADF80450A3
:10B91000ADF80660ECE704F11C065D1CEFB2BC4517
:10B920002B4680F8C55204F11204D4D8012300201C
:10B930000B7002B0BDE8F0810026EEE73389BEF857
:10B9400008008342F2D00133ADF80430ADF80600B0
:10B95000CEE700BF68B130B4074C0849084A094D2A
:10B9600010600023236001240C702B60184630BC4B
:10B9700070470E2318467047303D00202C3D0020B4
:10B98000283D00203440002000283ED02D4B1B785D
:10B990002BB370B42C4C2D4B2268002A50D08178E8
:10B9A0009D788D4233D0012A42D99D798D4233D082
:10B9B000022A3DD09D7A8D4233D0032A38D09D7B18
:10B9C0008D420ED0042A33D09D7C8D4213D0052A9F
:10B9D0002ED09D7D8D4213D0042070BC704708206E
:10B9E00070479E890588AE42ECD119490968E9B1D2
:10B9F000002070BC70471E8A0588AE42E7D1F4E78C
:10BA00009D8A01888D42E7D1EFE70E2070471E889E
:10BA10000588AE42C7D1E8E79E880588AE42C7D107
:10BA2000E3E71E890588AE42C7D1DEE7052AD3D8F1
:10BA3000511C006843F822002160002070BC704750
:10BA40000121F6E72C3D0020303D00203840002049
:10BA5000283D0020B0B31C4B1B7843B31B4B1B6825
:10BA60002BB370B590F8C75204464DBB0E464FF449
:10BA70003372294601F0ACFD154A164B1068206060
:10BA8000A4F8CA6284F8C95284F8C65284F8C55230
:10BA90002246304601211D60FFF78AFE112808D09A
:10BAA00020B9012384F8C80284F8C73270BD082089
:10BAB0007047012384F8C73284F8C832284670BD25
:10BAC000112070BD0E2070472C3D0020303D00201D
:10BAD000384000203440002000B3F9B1644B1B789B
