:1000000000000420B5020000DD020000DF02000055
:10001000E1020000E3020000E50200000000000031
:10002000000000000000000000000000E7020000E7
:10003000E902000000000000EB020000ED020000F9
:10004000EF020000EF02000089280000E92800000C
:10005000EF020000EF02000021230000EF02000089
:10006000EF020000EF020000EF020000EF020000CC
:10007000EF020000EF020000EF020000EF020000BC
:10008000EF0200005D0E0000EF020000EF02000032
:10009000FD0E0000EF020000EF020000EF02000082
:1000A000EF020000EF020000EF020000EF0200008C
:1000B000EF020000EF02000000000000000000005E
:1000C000EF020000EF020000EF020000EF0200006C
:1000D000EF020000EF020000EF020000EF0200005C
:1000E000EF020000EF020000EF020000000000003D
:1000F00000000000EF02000000000000EF0200001E
:1001000000000000000000000000000000000000EF
:1001100000000000000000000000000000000000DF
:1001200000000000000000000000000000000000CF
:1001300000000000000000000000000000000000BF
:1001400000000000000000000000000000000000AF
:10015000000000000000000000000000000000009F
:10016000000000000000000000000000000000008F
:10017000000000000000000000000000000000007F
:10018000000000000000000000000000000000006F
:10019000000000000000000000000000000000005F
:1001A000000000000000000000000000000000004F
:1001B000000000000000000000000000000000003F
:1001C000000000000000000000000000000000002F
:1001D000000000000000000000000000000000001F
:1001E000000000000000000000000000000000000F
:1001F00000000000000000000000000000000000FF
:1002000010B5054C237833B9044B13B10448AFF350
:1002100000800123237010BD0002002000000000B8
:10022000343F000008B5034B1BB103490348AFF34B
:10023000008008BD0000000004020020343F0000E0
:10024000154B002B08BF134B9D46A3F5803A0021A8
:100250008B460F461348144A121A03F0A8FC0F4BA2
:10026000002B00D098470E4B002B00D09847002061
:10027000002104000D000D48002802D00C48AFF307
:10028000008003F045FC2000290003F0B3FA03F0DE
:100290002BFC00BF0000080000000420000000004C
:1002A00000000000000200203C0A002000000000C6
:1002B000000000000649074A074B9B1A03DD043B78
:1002C000C858D050FBDC03F02DFBFFF7B9FF00004E
:1002D000943F00000000002000020020FEE7FEE73F
:1002E000FEE7FEE7FEE7FEE7FEE7FEE7FEE7FEE7E6
:1002F000F0B595B0002415460F4608461E4601F09D
:10030000DDFC384623460895082205A91A9D099662
:100310000D950A948DF82C400C9401F029FD9DF860
:1003200014308DF81140DDE9061003F00302012AB4
:10033000CDE9020127D0022A04D0384601F0C2FCE0
:1003400015B0F0BDBDF81650C3F3C2038DF81030E0
:10035000AD090826082D2C4628BF0824334622461E
:100360000EA9384601F004FD2D1B214608AB02AA58
:100370000EA8264400F032FC002DEBD1384601F0E7
:10038000A1FC15B0F0BDBDF81460059DC6F3831641
:10039000C3F3C204B2000EA9384608238DF81040FA
:1003A000C5F3952501F0E4FC08AB324628460EA9BA
:1003B000009302AB00F06CFB384601F083FC15B0F3
:1003C000F0BD00BF014B01221A707047600200208F
:1003D000704700BF00B583B0044B0093044A40232C
:1003E000FFF786FF03B05DF804FB00BFF5030000D4
:1003F0002002002038B50E480E4D03780E4CEB5C01
:100400000025D2B2257053B90C3002F009FF58B95B
:100410000A4B1B7813B12378002BFCD038BD043075
:1004200003F076F90028F3D000F0D0FCF0E700BF2D
:1004300000000020380A0020600200201C0200207A
:1004400070B51348134A0378D35C88B0DBB90C301D
:1004500002F068FE104D0FCD6C460FC495E80F00FA
:1004600008AD062645F8206D84E80F0029460022D5
:10047000074801F05BFD08B100F0A8FC074B002223
:100480001A7008B070BD043003F0C2F8E2E700BF94
:1004900000000020380A0020043C00001C0200205C
:1004A00070B50D4D0FCD88B06C460FC495E80F00A8
:1004B00008AD062645F8206D84E80F002946074A56
:1004C000074801F033FD08B100F080FC054B012224
:1004D0001A7008B070BD00BF043C0000C5030000E6
:1004E000000000201C02002008B5FFF7D9FF0421FE
:1004F000034800F083FA034B01225A7108BD00BF84
:10050000683F000014000020F0B5324C85B004F5BF
:10051000836000F0F1FE04F2144000F0EDFED4E937
:10052000013703EA0702D01C04EB800114F8200015
:1005300010F0040044D003F1020C0E7806F003061C
:10054000012E654635D0022E02F1030621D004EBC0
:1005500086010028F1D104EB82020133D2680192B6
:100560003B4004EB830302F00302012ADE6829D03A
:10057000022A23D1BDF806309B090333360C05EB64
:100580009305154800F0C4FE00B16560304605B023
:10059000F0BD4B880CEB931307EA0302D11C03F167
:1005A000020C14F82100654604EB810100F0040000
:1005B000CFE70B88C3F383136344EDE70026E0E73E
:1005C0009D1CC8E7BDF80430C3F38313360C1D44EB
:1005D000D7E700BF34030020480700200B4B0C482E
:1005E00010B50022FF21C3F818249960C3E9002246
:1005F000C3F8142483F8202401F01CFB044610B92E
:10060000044801F0E9FB204610BD00BF3403002080
:10061000783F0000443C000021B9124B03EBC000BE
:1006200000687047104A0F49521AD20815D030B4EA
:100630000E4D2B88834212D0002303E035F823406F
:10064000844205D001339A42F8D1002030BC704773
:1006500001EBC300006830BC704710467047084685
:10066000F8E700BF383F0000683F000000020020AC
:10067000094B013903EBC00003290BD8DFE801F077
:1006800002080604022070474079704700797047DD
:100690000420704700207047383F00002DE9F843E0
:1006A000DFF8D890074600208846D9F8084000F0C7
:1006B000EFFDD9E90132D9F80060134401339B1BE7
:1006C000012B56D809F21C450121284600F0FCFDFB
:1006D000FFF71AFF0146284600F0F6FDD9E901327E
:1006E000D9F80010134401335B1A012BECD90A40EE
:1006F000033205230231002049F82230C9F80010E6
:1007000000F0CEFD00211C4800F0D4FD80F3100065
:10071000731C234009EB830300043440033440EA94
:100720001740D86019F8243067F3C50309F824305E
:1007300039F824306FF3891329F8243059F824202C
:1007400068F39F221346012161F301036FF38203D3
:1007500049F8242009F8243099F820341BB906E020
:1007600000F00EF818B1D9E900329A42F8D1BDE88C
:10077000F8833146BBE700BF500700203403002058
:100780002DE9F047914C002384B0C4F81834BFF32E
:100790004F8FD4E9015605EA0602D31C04EB83010E
:1007A00014F82330580719D527680B7803F0030392
:1007B000012B43D0022B03D14B88023505EB931557
:1007C00006EA0502D4F81804D31C04EB830128B907
:1007D000AF4239D914F823305B07E6D404EB820228
:1007E0006B1CD2680192334004EB830302F00302D6
:1007F000DB680293022A05F1020700F08980012AD2
:1008000026D0D4F810543DB12B6828469B689847F1
:10081000EB681D68002DF7D16D486E4B6E49C01A0C
:10082000C008000440F00200FFF738FFD4E90030B0
:10083000C01A18BF012004B0BDE8F0870B8802354C
:10084000C3F383131D44BBE7676004B0BDE8F087C2
:10085000BDF804206148C2F38313062B28BF06238A
:1008600063F3891202339900ADF8042001F0E4F932
:1008700080460028C5D001F021FA0023082201A9F2
:10088000404601F041FABDF8043013F4707F00F0E7
:100890009B806FF0010AAAEB050A082506EA07010A
:1008A00003312B46042204EB8101404601F02CFA6F
:1008B000BDF8043007F101090AEB0902C3F3831301
:1008C00093424F4605F10405E8D8D4F81834002BBC
:1008D00064D1D4F8105465B1EB685A792846414682
:1008E000002A57D02B681B689847EB681D68002DBD
:1008F000F2D1404601F0E6F9002000F0C9FCD4F83E
:1009000018340BB9C4F80490002000F0C9FC8DE73E
:10091000BDF8063031484FEA93194D46502D28BF97
:10092000502565F38F1305F10801ADF8063001F08D
:1009300083F9804600283FF464AF26EA070A0AF1EB
:10094000010A01F0BBF94FEA8A0A0023082201A933
:10095000404601F0D9F955452BD9EBB2BAF1000F59
:1009600020D006EA0701A3EB0A03033104EB81015F
:10097000DDB252460823404601F0C6F92A460AF184
:1009800008031749404601F0BFF909F1030907EBD5
:1009900099099AE71D68002D9ED1AAE7404601F00B
:1009A00091F943E72A4608230D49404601F0ACF986
:1009B000EBE706EA0701033104EB81012A4608232D
:1009C000404601F0A1F9E0E7B9467EE73403002094
:1009D000603F0000383F0000503C0000783F0000BE
:1009E00040030020044BD3E900239A4201D0FFF7D3
:1009F000C7BE0020704700BF3403002030B4184D3C
:100A0000D5F8104400215CB1E3681A798A4204D118
:100A100016E0DB681A798A4212D01B68002BF8D1E5
:100A2000C3681971D5F8103493B1DA68C3681268D5
:100A30001A60D5F81034DB68186030BC084670477F
:100A400001310A29DFD14FF0FF31084630BC704731
:100A5000C5F81004C2681360084630BC704700BF78
:100A60003403002038B5094BD3F81044012583F82E
:100A700020544CB1E3685D71236820465B68984759
:100A8000E3681C68002CF5D138BD00BF340300209A
:100A90002DE9F04784B01D460C9C002394F80C808F
:100AA0002373EB8881460E461746002B40D1297AE6
:100AB00005290ED06B7AA88873BB404B53F821A050
:100AC0000021FFF7A9FD524603463D49204600F0AC
:100AD0008BFC062F09D8DFE807F0046A4249525D13
:100AE00033004946204600F07FFC2B7A052B05D0C9
:100AF0006B7A5BB93349204600F076FC204600F063
:100B000067FC84F80C8004B0BDE8F0872E4A2F49BA
:100B1000204600F069FCEDE7FFF7AAFD2C4B2B49BE
:100B200053F82020204600F05FFC297AA888C4E70B
:100B3000254A00922749284A204600F055FCB6E78E
:100B4000D6E90410D6E900230390D6E90207029102
:100B5000CDE900074946204600F046FCC5E7494676
:100B6000D6E90023204600F03FFCBEE7B168D6E995
:100B7000002320460091494600F036FCB5E7D6E94F
:100B80000201D6E90023019100904946204600F079
:100B90002BFCAAE7D6E90371B068D6E900230291DD
:100BA000CDE900074946204600F01EFC9DE732686B
:100BB0004946204600F018FC97E700BFDC3C0000E7
:100BC000CC3C0000D83C0000C03C0000C83C000009
:100BD000683C0000A83C0000A03C0000082900D9A7
:100BE00070472DE9F04F1D46904600232A7B2B735A
:100BF00085B0B8F80630039207460E46002B7BD12D
:100C000098F80810052911D098F80930B8F80400B0
:100C1000002B63D13C4B53F821400021FFF7FCFC33
:100C2000224603463949284600F0DEFBDFF8FCB0D7
:100C3000DFF8FC90002405E03A5D013400F0D4FBBD
:100C4000082C09D0A64249462846F5D85946013411
:100C500000F0CAFB082CF5D12D49DFF8D8B0DFF839
:100C6000D890284600F0C0FB00240CE017F804A040
:100C7000BAF17E0F23D92E2249462846013400F0CE
:100C8000B3FB082C08D0A642F0D8594628460134B8
:100C900000F0AAFB082CF6D198F80830052B02D0FA
:100CA00098F80930A3B91B49284600F09DFB284657
:100CB00000F08EFB039B2B7305B0BDE8F08F02F0B4
:100CC0004BFF50445246437813F0970FD3D0D3E7ED
:100CD000114A1249284600F087FBE4E7FFF7C8FCF9
:100CE0000F4B0E4953F82020284600F07DFB98F862
:100CF0000810B8F804008DE7074A009209490A4A2B
:100D0000284600F071FB7BE7DC3C0000CC3C000097
:100D1000983C0000D83C0000C03C0000C83C0000EB
:100D2000683C0000A83C0000A03C0000943C00008F
:100D30008C3C0000D43C00009C3C00000A4B195C39
:100D40001F298ABF09484FF0A04001F01F01D0F8C9
:100D5000043501228A4022EA03011340C0F8081535
:100D6000C0F80C35704700BF483D0000000300503C
:100D7000C20730B40ED483070AD54FF0A0430C222B
:100D8000C3F82C27C3F83027C3F86027C3F86427BB
:100D900030BC70474FF0A0430322C3F834274FF410
:100DA0000055C3F838274FF48044C3F83C274FF46C
:100DB0000041C3F840274FF48032C3F80855C3F808
:100DC0000845C3F80815C3F80825D4E700B585B071
:100DD00000230390194601AA44F20100CDE9013332
:100DE00000F004F805B05DF804FB00BF10B572B662
:100DF000FFF738FEFFF7F6FD0028FBD1104B114C32
:100E00001149E41AE408240444F00100FFF746FC09
:100E10000E4B1B68DB0700D500BE44F002000C49F6
:100E2000FFF73CFCBFF34F8F0A490B4BCA6802F433
:100E3000E0621343CB60BFF34F8F00BFFDE700BFFD
:100E4000383F0000603F00004C3D0000F0ED00E046
:100E5000583D000000ED00E00400FA05F8B5204A16
:100E6000204B0024C2F84041C2F84441C2F8484136
:100E7000C2F84C41C2F80041C2F804411B6833B3C8
:100E80001949D2F804550A68AD1A1A6825F07F4549
:100E9000AA4227460DD8197CDE69AD1A144419B14F
:100EA0001F74D3E9052090471EB133461A68AA4241
:100EB000F1D90E490E4A0B7812789A4208D00D49A2
:100EC0000D4A41F823404FF48013C2F80031F8BDB9
:100ED000531CDBB2022B08BF00230B70EFE700BFEF
:100EE00000100140100900200C0900200909002011
:100EF000080900200009002000E100E02DE9F04F82
:100F00008C4A8D4913780978DFF85082994285B070
:100F1000D8F800A000F07B810133DBB2022B08BFC0
:100F2000002386481370864A076852F823107B18FE
:100F300023F07F4300240360534626462046A44600
:100F4000ABB11A688A4200F26581DC68C3F800C060
:100F5000891A1044DA6934B13D1825F07F45C3E998
:100F60000154DE611E4613460124002BE9D1002CFA
:100F700040F07C8101230093724B734FDFF8E091C6
:100F800043F00103019355464FF0000B46B3D6E9F9
:100F900001C13446F669694B6C481A68ACEB020330
:100FA00023F07F43834248D80B4423600022012171
:100FB000C4E90122E2612174002D5DD02A689A42C1
:100FC0004DD2284603E00A689A424FD20846C169CA
:100FD0009B1A0029F7D12360E161C461002ED6D1AC
:100FE00078783978884264D00B4603EB43034C1C75
:100FF000BA7807EBC303E1B28A421A79397004BFA9
:1010000000213970022A9C6844D0032A38D0012A72
:10101000E8D1227C002AE5D1D3F80CC0C4F804C082
:101020001969A1605869E06099F800009B69A361A3
:101030000028B0D062609446ADE7A2EB0C0222F02B
:101040007F428A4202D28B1A2360AFE7002301223B
:10105000C4E90033A360E36122746DB12A68C8F863
:101060000040D31A2B60E56125468FE7D21A0A604B
:101070002360E161C461B1E7C8F80040254685E717
:10108000002DAFD000232B74ED69002DFBD1C8F8E3
:101090000050A5E74DB1AC422B4603D1E4E09442A9
:1010A0002FD01346DA69002AF9D10023237488422D
:1010B0009AD1BBF1000F01D1554553D0002D56D127
:1010C000234E244A1F4C4FF480334FF40031012744
:1010D000C2F880103C43C6F848334FF43C60C6F871
:1010E00008337760A047154BB7604FF43C601D6034
:1010F000A047194B1D70002389F8003005B0BDE8EA
:10110000F08FA34200F09180E0692168D861002847
:1011100000F086802A4603680B440360AA424FF021
:1011200000033978787823741CBF15464FF0010B03
:10113000BDE700BF08090020090900200C090020B4
:1011400000090020703D0000F0070020FEFF7F0036
:101150000010014000E100E0FD080020100900201F
:10116000FC080020009B002BC5D0002DA8D0434BCD
:10117000434A1C68D2F80465424FD5F800A039787C
:10118000331B23F07F43DD1CB9B93F493F4B4FF47C
:101190008030C2F844034FF00108C2F804034FF452
:1011A0000030C1F8800143F001030860C2F80080FC
:1011B0004FF43C60984787F80080AA452CBF04EBA9
:1011C0000A0363192E4923F07F43C1F84035D1F853
:1011D0000425921B9B1B22F07F4223F07F430332A6
:1011E0009A4288D9294BD1F80425C1F8402543F00B
:1011F00001034FF43C609847234B4FF40032C3F88F
:101200000021002389F8003005B0BDE8F08F0026EA
:101210000096B1E674BB521A1A6001230093ABE644
:10122000002339787878237441E71946EA69C8F8C9
:10123000002092B9CDE90231114BDFF840C0012006
:101240009860019B89F80000CCF800204FF43C60C6
:101250009847DDE90231D8F80020C8690968D861EB
:1012600000287FF458AF59E72946DFE7C8F8003077
:101270009A467FE6C8F800309A46CCE70C09002071
:1012800000100140FD08002000E100E0703D00007A
:1012900072B6024A136801331360704714090020C4
:1012A000034A1368013B136003B962B6704700BF7D
:1012B0001409002050E8002F0B4640E8003C9CF049
:1012C000000FF7D11046704750E8003F03EB0102D2
:1012D00040E8002C9CF0000FF6D11046704700BF8C
:1012E00050E8003FA3EB010240E8002C9CF0000F07
:1012F000F6D11046704700BF012350E8002F42EAA4
:10130000030C40E800C191F0000FF6D16046704731
:10131000002350E800CF0CEA030240E8002191F0DE
:10132000000FF6D160467047B8B130B4D0E9011271
:10133000521A0468D2B2531E2160DBB242B1016876
:101340000A685C1E551C0D601370E3B2FF2BF6D1CA
:1013500003680020187130BC70470E20704700BF32
:1013600038B504460020FFF793FFD4E900311A682E
:101370008A4215D9511E19602168A3680868258A18
:1013800012F8012CE4681B1A0879DBB2984205FBBD
:10139000024400D20B710020FFF782FF204638BDC7
:1013A0000024F8E738B5054600200C46FFF770FF2B
:1013B0002A681368591C1160E9682A8A641AB4FB08
:1013C000F2F41C700020BDE83840FFF769BF00BF91
:1013D000826842B110B504464369016800699847C4
:1013E0000023A36010BD70470EB400B582B003990E
:1013F00029B102AA04AB42F8043D00F0A9F802B0FA
:101400005DF804EB03B070472DE9F04F924683B0CE
:1014100051450F4605461E46DDE90CB2C0F09280EC
:101420000B464FF00108B3FBFAF39A4508F10108A7
:10143000F9D9B04538BFB04612F00109A96802D108
:10144000BBF1000F54D1012402E0013E0AFB04F479
:10145000012EFAD8B7FBF4F08245F7D93B4E02E0F3
:10146000A968B7FBF4F0335C2A680A2B04FB1077F9
:1014700002EB010E01F1010029D0A8608EF80030C6
:10148000D5E90131994202D32846FFF7A1FFB4FB09
:10149000FAF4002CE4D1B9F1000F15D0BBF1000F24
:1014A00012D0C34510D92024AB682A68591CA96002
:1014B000D454D5E901329A420BF1FF3B14D2BBF16F
:1014C000000F01D0C345EFD103B0BDE8F08FA86095
:1014D0004FF00D005054D5E9011088421DD2296803
:1014E00001EB000E0130C8E72846FFF771FFE6E781
:1014F000930722D42024C345A5D92B684A1CAA608F
:101500005C54D5E9013199420BF1FF3B10D2BBF19C
:10151000000F98D0C345F0D195E728460193FFF717
:1015200057FFAA682968019B501C01EB020EA4E733
:101530002846FFF74DFFA968E9E7002E0CBF3024CD
:101540002024D8E74FF0010873E700BF783D000082
:10155000002900F0B9822DE9F04F054687B0914689
:101560000C460E78DFF8C8A64FF00D0B13E0AB6801
:1015700028680A2E03F1010200EB030100F04B8200
:10158000AA600E70D5E901329A4280F01B8126785C
:10159000002E00F01E810134002E00F01A81252E4D
:1015A000E5D12346002713F8012B2D2A00F0E38014
:1015B000302A00F0E4802B2A00F0D4802A2A00F0A0
:1015C0000D81A2F13006F1B2092903D97DE2A1F122
:1015D00030060346184606EB860110F8012BA2F1EF
:1015E0003004092C02EB4101F1D92E2A00F00281CE
:1015F0004FF00008013301E013F8012B02F0FB016A
:1016000068291C46F8D0253A532AC0D801A353F8BC
:1016100022F000BFFF1900008F1500008F15000099
:101620008F1500008F1500008F1500008F1500002A
:101630008F1500008F1500008F1500008F1500001A
:101640008F1500008F1500008F1500008F1500000A
:101650008F1500008F1500008F1500008F150000FA
:101660008F1500008F1500008F1500008F150000EA
:101670008F1500008F1500008F1500008F150000DA
:101680008F1500008F1500008F1500008F150000CA
:101690008F1500008F1500008F1500008F150000BA
:1016A0008F1500008F1500008F1500008F150000AA
:1016B0008F1500008F1500008F1500008F1500009A
:1016C0008F1500008F1500008F1500008F1500008A
:1016D0008F1500008F1500008F1500008F1500007A
:1016E000E31900008F1500008F1500008F15000012
:1016F0008F1500008F1500008F1500008F1500005A
:101700008F1500008F1500008F150000871700004F
:10171000691900008F1500008F1500008F1500005B
:101720008F150000691900008F1500008F1500004B
:101730008F1500008F1500008F1500008F15000019
:10174000D11800008F1500008F1500004918000007
:101750008F1500002D1800008F1500008F15000058
:10176000E319000047F004071C46234613F8012B39
:101770002D2A7FF41DAF47F001071C46F5E747F01F
:1017800002071C46F1E7D9F800301A1DC9F80020FD
:101790001E78AB680A2E0CD12A68591CA96002F881
:1017A00003B0D5E90123934203D32846FFF710FE87
:1017B000AB682A68591CA960D654D5E901329A420F
:1017C000FFF4E5AE2846FFF703FE2678002E7FF4EF
:1017D000E2AE2B7B23BB07B0BDE8F08FD9F8002029
:1017E000111DC9F80010166862782E2A04F1020053
:1017F0007FF4FEAE5A78A2F13003092B00F2BD81CE
:101800004FF0000808EB880802EB480810F8012F99
:10181000A2F13003092BA8F13008F3D90346E9E619
:10182000284607B0BDE8F04FFFF7D2BDD9F8003029
:101830001A1DC9F8002019680197434600960A222C
:101840002846FFF7E1FDA2E6D9F800301A1DC9F8D5
:101850000020D3F80080FB0700F1E880B8F1000F0A
:1018600000F0A181404602F0AAF90746BE4215D910
:10187000A6B1202100E08EB1AA682B68501CA86098
:101880009954D5E901329A4206F1FF3604D328462D
:101890000391FFF79DFD0399BE42ECD108F1FF389B
:1018A00018F8016F002E3FF472AEAB6828680A2E5C
:1018B00003F1010200EB030100F09081AA600E70B9
:1018C000D5E901329A42EBD32846FFF781FDE7E7DD
:1018D000D9F80020131DC9F80030AB6829681768D3
:1018E000581C3022A860CA54D5E90123934280F0E5
:1018F000E6802A68581C7821A860D154D5E90123D4
:10190000934280F0D7800F2F03D93A4612090F2A4D
:10191000FCD84FF080560DE0AA6081F80080D5E930
:1019200001329A4202D32846FFF752FD36093FF4AE
:101930002EAEAB68B7FBF6F21AF802802868B8F151
:101940000A0F06FB127700EB030103F10102E3D15A
:10195000AA6000F803B0D5E901329A4280F04981CB
:101960002B6899180132D7E7D9F800301A1DC9F849
:101970000020196881EAE173A3EBE173092B40F3BE
:101980000E81AA480122A0FB03C3DB08092B02F148
:101990000102F8DC4245134638BF4346039307F083
:1019A0000203002E40F09580002B00F0B780B8F1C4
:1019B000000F00F0F680F80740F1B0800029C0F277
:1019C000FF807A0700F1C88007F00303022B00F0C4
:1019D000A780CDE9006743460A222846FFF714FD99
:1019E000D5E5D9F800301A1DC9F80020196801970B
:1019F0004346009610222846FFF706FDC7E5AB6870
:101A00002A68581C2521A860D154D5E901329A4290
:101A1000FFF4BDADD6E6AA6000F803B0D5E9013207
:101A20009A423FD2296811440132A9E54146A1EB0F
:101A3000080311F8017BD7B1AB68D5F800C00A2FB5
:101A400003F101020CEB030000F0AF80AA60077005
:101A5000D5E901329A42EAD328460391FFF7B8FC50
:101A60000399A1EB080311F8017B002FE4D19E42FA
:101A70007FF68DAD202702E0002E3FF488ADA968E7
:101A80002A68481CA8605754D5E90121914206F103
:101A9000FF3604D328460393FFF79AFC039BB34217
:101AA000EAD174E52846FFF793FCAB6829685A1C15
:101AB000194465E52846FFF78BFCAB6823E7284609
:101AC000FFF786FCAB6814E77047184600262346EC
:101AD0008BE5002920DB7A071ED41BB1B8F1000F7B
:101AE0003FF46CAFF8073FF569AFBEB1039BB3425B
:101AF000BFF464AF2023AA68501CA86028688354F0
:101B0000D5E90102824206F1FF3640D236B1039A8E
:101B1000B242F0D1164651E7013EDEE700264DE71E
:101B2000B8F1000F7FF455AF002E6AD0039BB3428B
:101B3000BFF44FAF3023AA68501CA86028688354B4
:101B4000D5E90102824206F1FF3618D2002E58D0A4
:101B5000039AB242EFD13CE7AA68531CAB602B68F2
:101B60002B209854D5E901329A42FFF42DAF284634
:101B70000491FFF72DFC049926E7034638E5284633
:101B8000CDE90413FFF724FCDDE90413DEE7284662
:101B9000CDE90413FFF71CFCDDE90413B6E70122CD
:101BA000F8E646460AE7474660E6AA600CF803B046
:101BB000D5E901329A4226D22B689818013245E7BE
:101BC000AA68531CAB602B682D209854D5E90132CC
:101BD0009A42C1F10001FFF4F7AEC8E7AA6000F82D
:101BE00003B0D5E901329A4217D229681144013273
:101BF00064E62846FFF7ECFBA9682B684A1C1944E9
:101C00008AE60026E5E628460391FFF7E1FBA8688F
:101C10002B680399421C184418E72846FFF7D8FBA5
:101C2000AB6829685A1C194448E600BFCDCCCCCC1F
:101C3000783D0000FFF778BB2DE9F041058ACE1C06
:101C4000043D2E440746B6FBF5F6FFF789FB78B353
:101C5000F6B24FF48073013E0446C580076083806E
:101C600027D08046002509E06379AE4203F10103E5
:101C70006371C8F80000076080461AD03846FFF745
:101C80006FFB01350028EFD16679721E14D0234610
:101C9000013082421B68FBD11F684EB100252368CA
:101CA0002146013538461C46FFF77CFBAE42F6D193
:101CB00000242046BDE8F0812768EFE704300121C9
:101CC000FFF702BBF8B5012104460430FFF708FB1B
:101CD000C0B200B1F8BD6679721E12D02346013041
:101CE00082421B68FBD11F68002EF3D000252368B9
:101CF0002146013538461C46FFF754FBAE42F6D16B
:101D0000F8BD2768F2E700BF2DE9F843C788467998
:101D100007FB06F6043E02EB030C0446664503F19E
:101D2000040015468846B0FBF7F238BFF51A07FBEA
:101D3000120012B1013A2468FCD13E1AAE4228BF0B
:101D40002E469DB14FF000090430AD1B20443246B1
:101D500008EB090101F020FFAF42B14424683E4680
:101D60004FF0000028BF2E46002DEDD1BDE8F883CE
:101D70002DE9F843C7884679154607FB06F6043E69
:101D800005EB030C1A1D664504468846B2FBF7F0C6
:101D900038BFF51A07FB102110B101382468FCD1B7
:101DA0007E1AAE4228BF2E469DB14FF00009043185
:101DB0002144AD1B324608EB090001F0EDFEAF42B5
:101DC000B14424683E464FF0000128BF2E46002D46
:101DD000EDD1BDE8F88300BF82680023936082687C
:101DE0001361826853618268D3608268536082683D
:101DF0001360704730B587B0057844688DF804509B
:101E000002948568084A094B8DF80C50D0E90340CC
:101E100053F821308DF81400049452F8211001A8D1
:101E2000984707B030BD00BF1809002028090020DE
:101E30002DE9F04306461F4C16F8047B1E4844F873
:101E4000273015460C460FC8DFF870E0DFF870C089
:101E50004EF8275085B0002D6D4685E80F00237899
:101E600094F8019094F8028094F803E08DF8003023
:101E700029463B46257B67798DF8019018BF62465D
:101E8000304694F804C0A668647B8DF8028008BFD1
:101E900000228DF803E08DF805C08DF806700296DB
:101EA0008DF80C508DF80D4000F05AFD05B0BDE8DE
:101EB000F08300BF18090020883D00002809002099
:101EC000F51D000030B585B0047845688DF80040F8
:101ED000D0E90240064A074B039053F821300195A0
:101EE0008DF8084052F821106846984705B030BD7B
:101EF000380900204009002030B585B004784568D5
:101F00008DF80040D0E90240064A074B039053F891
:101F1000213001958DF8084052F821106846984705
:101F200005B030BD38090020400900202DE9F043FC
:101F3000DFF8748006784B7F08F806300D460746B8
:101F400096460FCD89B06C460FC495E80F003D78DA
:101F5000DFF85890DFF858C018F8055049F826E027
:101F600084E80F004CF82600049665B1BEF1000F1E
:101F70000B4A694607F1040008BF002201F044FA49
:101F800009B0BDE8F083BEF1000F064A694607F1CB
:101F90000C0008BF002200F0D3FF09B0BDE8F083B9
:101FA000C51E0000F91E0000380A0020400900206C
:101FB0003809002030B5204C94F86A5083B0002DC9
:101FC00036D14FF0FF332946062204F16400C4E9FC
:101FD0000033C4E90233C4E90433C4E90633C4E975
:101FE0000833C4E90A33C4E90C33C4E90E33C4E945
:101FF0001033C4E91233C4E91433C4E91633236639
:1020000001F0D5FD0D4A0E4B0E491D60C02082F82F
:102010000603402010601B68019301984FF00043B5
:102020000122284684F86A20C1F8043303B030BD89
:10203000082003B030BD00BF4809002000E100E0E7
:102040007C61004000600040F0B5744B1C1894F9AE
:102050003050002D6ADA8E78C6F340069646002E80
:102060005ED11D6A013500F0C48009240C2553F8A7
:10207000247001375DD004F1010C53F82C70013746
:1020800000F0C280A71CAF4248D253F8272001328B
:1020900000F0BC8004F1030CAC453FD253F82C7027
:1020A000013700F0B18004F1040CAC4536D253F88E
:1020B0002C70013700F0A88004F1050CAC452DD23E
:1020C00053F82C70013700F09F8004F1060CAC45EA
:1020D00024D253F82C70013700F0968004F1070CDD
:1020E000AC451BD253F82C70013700F08D8004F101
:1020F000080CAC4512D253F82C70013700F08480E4
:1021000004F1090CAC4509D253F82C7001377BD08F
:102110000A34AC4202D2DC6A013409D00420F0BD9A
:102120001D68013574D001240825A0E70820F0BD02
:102130000B241F1865B243F824E087F83050002EB6
:102140005ED08A7854071AD4D60741D41F284A781B
:1021500087BF334E00F01F0404464FF0A04604F53D
:10216000E074920046F824202E4EC40800F0070CBC
:10217000375D012202FA0CF23A4332558A780C7824
:1021800012F0020209D1083D2B44104693F860205A
:1021900042EA841483F86040F0BDAB0003F1804351
:1021A00003F5C0430202D3F8101521F44F3121F496
:1021B0004071C3F810152404D3F8101504F440340A
:1021C00002F47C5222430A43C3F810250020F0BDDC
:1021D0001F2887BF124A00F01F0404464FF0A04298
:1021E00002EB8402D2F8004724F00204C2F8004750
:1021F000BAE7082684F83060C3F820E03546344654
:102200001C4484F858009CE7644692E73C4690E7FB
:1022100000251A6084F8305093E700BF4809002079
:1022200000030050AC09002070B43A4D2E1883B062
:1022300096F93030072B20DD2B4493F858309B095A
:10224000032B45D0012B14BF4FF440314FF4003124
:102250001F284DD900F01F002F4B03EB8000D0F852
:10226000002722F44032C0F80027D0F800370B4393
:10227000C0F8003703B070BC7047DAB2072AF9D84B
:10228000980000F1804000F5C04003F14002D0F812
:102290001045920092B244F0010402F18042C0F86D
:1022A000104502F5C04200200190019C10600029F9
:1022B000E0D096F9302055F82220002ADAD0012209
:1022C000164902FA03F3C1F8043303B070BC704737
:1022D0001F2810D9104BD3F8103500F01F00C34051
:1022E00013F0010F0CBF4FF400314FF44031B3E74E
:1022F0004FF0A043B1E74FF0A0421346D2F81025AB
:10230000C24012F0010F14BF4FF440314FF40031BE
:10231000A3E700BF48090020000300500060004010
:102320002DE9F047002388B0CDE90233CE4A166884
:10233000012E00F03B821E46CC4B1A68012A00F0A9
:102340002782CB4B1A68012A00F01482C94B1A6805
:10235000012A00F00182C84B1A68012A00F0EE81C0
:10236000C64B1A68012A00F0DB81C54B1A68012AA6
:1023700000F0C881C34B1A68012A00F0B581C24B36
:102380001A68012A0FD100221A601B6801934FF0CE
:10239000A042019BD2F81025BC4B0292D3F8103515
:1023A000039346F0004616F0FF0F1AD0B84F0024F2
:1023B0000125A30003F180432E4203F5C0434FEAF9
:1023C00045050BD0D3F8100557F82420D3F8101585
:1023D000C0F30520C1F3014102B190470134082C3C
:1023E000E7D1002E02DB08B0BDE8F087A84CA74F6C
:1023F0004FF0FF33CDE9063394F960300DF110084A
:1024000000225D1CC8F8042004924FF0010600F081
:10241000F4805FFA83FC2CF0C00008AB4FEAD009CF
:1024200003EB090E0CF007031EF8082C06FA03F361
:1024300012EA030521D022184FEA9C1192F93020AC
:1024400054F82220002A00F02981032900F0288175
:102450001F2800F2F98005464FF0A04C0CEB850CCC
:102460001EF8185CDCF800E71D40CEF3014E40F08A
:10247000DF80BEF1030F00F0BF8194F96130581C7A
:1024800032D0DBB223F0C00008AA4FEAD00E02EB34
:102490000E0C03F007011CF8082C06FA01F912EAE9
:1024A000090F21D02218990992F9302054F82220DE
:1024B000002A00F0FB80032900F0FB801F2800F2B7
:1024C000E98003464FF0A04E0EEB83031CF818EC96
:1024D000D3F800C71EEA090FCCF3014C40F0B880D6
:1024E000BCF1030F00F0AE8194F96230591C30D07A
:1024F000DBB223F0C00008AA4FEAD00E02EB0E0CAC
:1025000003F007011CF8082C06FA01F912EA090F7A
:102510001FD02218990992F9302054F82220002A5D
:1025200000F0D880032900F0D8801F287CD803460B
:102530004FF0A04E0EEB83031CF818ECD3F800C745
:102540001EEA090FCCF3014C64D1BCF1030F00F07B
:10255000658194F963305A1C34D0DBB223F0C0009B
:1025600008AA4FEAD00E02EB0E0C03F007021CF88B
:10257000081C06FA02F2114224D004EB0009990962
:1025800099F9309054F82990B9F1000F00F0988033
:10259000032900F098801F288BBFBE464FF0A04E45
:1025A00003F01F0303460EEB83031CF818ECD3F86B
:1025B00000C71EEA020FCCF3014C20D1BCF1030F7F
:1025C00000F00181002D3FF40EAF4FF0A0430299BF
:1025D000D3F81035D7F81025994203D103999142C9
:1025E0003FF401AFDDE90401CDE9023294F9603036
:1025F0005D1CCDE906017FF40CAF00253DE7BCF181
:10260000020FDFD1032900F03481B9F1000F40F04F
:10261000F180D7E7BCF1020F9BD1032900F026819E
:10262000002A96D0904794E703F01F03BE4681E747
:10263000BEF1020FE1D1032900F021810025002A1B
:102640003FF41BAF904718E70CF01F05BC4605E7A9
:10265000BCF1020F7FF448AF032900F00D81002A7E
:102660003FF442AF90473FE7006100400461004003
:10267000086100400C61004010610040146100409E
:10268000186100401C6100407C6100400003005064
:102690004809002003F01F03BE4615E70329ACD10B
:1026A00018F809501D4308F80950D1E603297FF4B2
:1026B0001BAF18F80EA04AEA090A08F80EA0FDE6BA
:1026C00003297FF47FAF18F80EA04AEA020A08F83F
:1026D0000EA060E703297FF43CAF18F80EA04AEA89
:1026E000090A08F80EA020E7664AD2F80423170664
:1026F0007FF545AE00221A601B680093009B46F0F0
:1027000080063CE65F4AD2F8042352067FF532AEDB
:1027100000221A601B680093009B46F0400629E6E1
:10272000584AD2F8042391067FF51FAE00221A60A2
:102730001B680093009B46F0200616E6514AD2F82B
:102740000423D0067FF50CAE00221A601B680093AC
:10275000009B46F0100603E64A4AD2F80423140709
:102760007FF5F9AD00221A601B680093009B46F0CC
:102770000806F0E5434AD2F8042355077FF5E6AD95
:1027800000221A601B680093009B46F00406DDE5FA
:102790003C4AD2F8042397077FF5D3AD00221A6094
:1027A0001B680093009B46F00206CAE53549D1F844
:1027B000041311F0010104D0136013680093009B0F
:1027C000BAE50E46B8E503297FF41FAF4FF4003C8D
:1027D000D3F8002722F44032C3F80027D3F80027AB
:1027E000013542EA0C02EDB2C3F80027B9F1000F3F
:1027F0003FF4EBAEC847E5E603297FF420AF4FF482
:102800000035DCF8003723F44033CCF80037DCF82F
:1028100000372B43CCF80037012510E703297FF45C
:10282000FFAE4FF4003ED3F800C72CF4403CC3F891
:1028300000C7D3F800C701354EEA0C0CEDB2C3F85F
:1028400000C7EDE603297FF40AAF4FF4003ED3F84A
:1028500000C72CF4403CC3F800C7D3F800C70135CB
:102860004EEA0C0CEDB2C3F800C7F8E64FF4403E58
:10287000D9E74FF4403CABE74FF4403EE7E74FF475
:102880004035BEE700600040014B1B68184700BFA1
:10289000B409002038B50C4B984201D0002038BD57
:1028A00000200D46FEF7F4FC084B1C7924B10020F3
:1028B000FEF7F6FC112038BD012220461D601A717A
:1028C000FEF7EEFC204638BD00200040B409002091
:1028D000034B984203D1034B00221A601A717047D0
:1028E00000200040B4090020194BD3F8182102B988
:1028F00070470021174AC3F81811D3F81811D37F75
:1029000082B0FF2B019101990DD0917F99B11F2BBE
:1029100086BF03F01F0310484FF0A040012101FAC9
:1029200003F3C0F80C35002353771372D2E900315A
:102930000A4802B018471F2B86BF03F01F03064842
:102940004FF0A040012101FA03F3C0F80835EAE78F
:1029500000300040BC09002000030050C4090020E2
:102960002DE9F04F0579DFF87C824FEAC50909EBC4
:102970000506B60008EB060B83B09BF81C70002F11
:1029800040F0E4809A46036801920C46074691495C
:1029900000931846FFF77EFF002840F0DB80019A85
:1029A00048F80620CBF804A0217B009B012940F2C7
:1029B000E78026781F2E86BF06F01F06DFF818C2B4
:1029C0004FF0A04C0121B140CCF8081521781F2907
:1029D00086BF01F01F01804E4FF0A04601F5E07167
:1029E0004FF0010C46F821C06178FF2900F0D78034
:1029F0001F298BBF01F01F0E8E46DFF8DCC14FF0A0
:102A0000A04C0EF5E07A012606FA0EF64FF0030E02
:102A1000CCF80C654CF82AE094F802C0BCF1FF0F2A
:102A200000F0C580BCF11F0FE6468BBF0CF01F06FF
:102A30007646DFF8A4C14FF0A04C06F5E0764FF0E3
:102A4000040A4CF826A094F802C009EB050608EB2E
:102A5000860686F820C094F803C086F81FC0E67882
:102A6000FF2E29D094F804C0BCF1000F76D11F2EA0
:102A700086BF06F01F06DFF860A14FF0A04A4FF0B6
:102A8000010C0CFA06F6CAF80865E6781F2E86BF18
:102A900006F01F06DFF840C14FF0A04C06F5E076C7
:102AA0004FF0030A4CF826A009EB050608EB860652
:102AB00094F804C086F81EC02678C3F80865C3F8E9
:102AC0000C15C3F810E5A168C3F82415617B267BBB
:102AD000003118BF0121022E78D0032E4DD0012ED7
:102AE00001D141F00201C3F85415A179C3F8C01512
:102AF000002A5FD040210722C3F80413C3F8002541
:102B000039686379090B4AB2002A57DB02F1604247
:102B100002F561425B01DBB282F800333B682F4C67
:102B20001B0B5AB2520903F01F03012101FA03F3F0
:102B300044F822304D4408EB85080022012388F830
:102B40001D2088F81C3003B0BDE8F08F082003B0CA
:102B5000BDE8F08F112003B0BDE8F08F1F2E86BFB7
:102B600006F01F06DFF870A04FF0A04A4FF0010CEE
:102B70000CFA06F6CAF80C6587E741F00601B2E7E1
:102B800021781F2986BF01F01F01DFF84CC04FF0EC
:102B9000A04C012606FA01F1CCF80C1516E794F8C2
:102BA00002C0BCF1FF0F4FF0FF317FF43BAF4FF09D
:102BB000FF3E4AE70722C3F80025BBE7084A01F0B9
:102BC0000F015B010A44DBB21376A7E741F0040171
:102BD00089E700BFE92800000003005000E100E0A1
:102BE000FCEC00E0BC0900202DE9F0470479DFF897
:102BF00090C14FEAC40E0EEB04039B0080460CEB21
:102C000003000D46417F82B0002940F092805CF8BD
:102C10000330164623B112F0140F04BF012343778B
:102C20000EEB04070CEB870795E80F0097F81F9051
:102C300007F10C0AB9F1FF0F8AE80F000FD0BB7F34
:102C4000002B7AD0B9F11F0F86BF09F01F094B4A3C
:102C50004FF0A042012303FA09F3C2F808352A68AD
:102C600022B102F06043B3F1005F58D1AB6823B1E9
:102C700003F06043B3F1005F51D1D8F800306968C8
:102C8000C3F84425C3F84815D5E90221C3F8342513
:102C90000022C3F83815C3F81821D3F8182101927F
:102CA000019A16F0010218BF0122C3F8502516F050
:102CB000020218BF0122C3F8402532075CBF01227F
:102CC0001A610EEB04025CF8222062B116F00400D7
:102CD0004FF040021ABFC3F808230020C3F80423B2
:102CE00002B0BDE8F087D3F81821002AFBD0744465
:102CF0000CEB840C9CF81F30FF2B3DD09CF81E2061
:102D000062B31F2B86BF03F01F031C494FF0A04185
:102D1000012202FA03F3C1F80C350020E0E7744405
:102D20000CEB840C002310208CF81D3002B0BDE8A1
:102D3000F087112002B0BDE8F087B9F11F0F8ABFFC
:102D40000E4A4FF0A04209F01F09012303FA09F3CC
:102D5000C2F80C352A68002A83D187E71F2B86BF6B
:102D600003F01F0305494FF0A041012202FA03F3CB
:102D7000C1F808350020B3E70020B1E70003005098
:102D8000BC09002030B56C4AD2F8043399058BB0E9
:102D900066D5D2F82431002B62D00023C2F824314A
:102DA000D2F8243103934FF40171644B0398C2F8B5
:102DB000081393F8291009B9012151605E490222D4
:102DC0008DF81820D1F88024C1F880249869D9683A
:102DD00009920022CDE90710C3E90622D3E90014C5
:102DE00006A8A047544AD2F81C31BBB1534B186A0D
:102DF0005969884269D350480022C0F81C21D0F894
:102E00001C010190019849B198688DF8182008912B
:102E10005A610790D3E9001206A89047464AD2F8B3
:102E20004431DBB10021454BC2F84411D2F84401D2
:102E300093F829100090009809B1012111609A6956
:102E400062B10022586AD9689A610122CDE907105F
:102E50008DF8182006A8D3E9001290470BB030BDBA
:102E6000354AD2F804335B07BCD5D2F80831002BC1
:102E7000B8D0324B996900293CD00021C2F8081122
:102E8000D2F8081104910499D868596AD2F8182523
:102E900042545A6A996901325A625A6A8A42A1D1E5
:102EA000DA691968002A2ED0D8685D6A1C699A61AF
:102EB000079000220120DC60DA615A628DF8180068
:102EC00008955B6806A898478CE793F8280000F0FF
:102ED000FF0400288FD1C2F81C41D2F81C110291C6
:102EE00002999C68186A196A205C01311962C2F85B
:102EF0001C0593E7C2F80811D2F80801059005985F
:102F0000D2F81825C9E793F8292012B90A4A0120F6
:102F10005060094A4FF40170C2F80803586ADA6831
:102F200008900024012007928DF818005A689C61CF
:102F300006A8904756E700BF00200040E0090020A7
:102F40002DE9F041714F06792C2505FB067582B0FD
:102F500095F82A30002B40F09A800D4604466C49C3
:102F600000689046FFF796FC002840F08C802B68A4
:102F7000591C19D01F2B4FF001028ABF65494FF031
:102F8000A04103F01F0302FA03F3C1F808352B68D0
:102F90001F2B86BF03F01F035E4A4FF0A04203F5CC
:102FA000E073032142F823106B685A1C0BD01F2BCF
:102FB00086BF03F01F03574A4FF0A04203F5E073AA
:102FC000002142F823102368AA69C3F82425297D2B
:102FD0006B7D22680B43C2F86C35D5E9001223687B
:102FE000C3F81425C3F80C152B7D012B53D02C23CB
:102FF00003FB06F3FA18C2F804802A69FA50B8F104
:10300000000F2DD022682B7F434D0021C2F81C11E8
:10301000D2F81C2100922268DDF800C0C2F84411E9
:10302000D2F84411226801910199C2F80453216831
:10303000090B4AB25B01002ADBB261DB02F160429C
:1030400002F5614282F800332368344D1B0B5AB2FB
:10305000520903F01F03012101FA03F345F822305E
:103060002C23246803FB0673002204250121C4F8E5
:10307000005583F82A10C3E9062283F829205A61F3
:1030800002B0BDE8F081112002B0BDE8F081082057
:1030900002B0BDE8F081AB68591C0BD01F2B86BF76
:1030A00003F01F031B4A4FF0A04203F5E073002119
:1030B00042F82310EB685A1C1BD01F2B4FF0010263
:1030C0008ABF14494FF0A04103F01F0302FA03F333
:1030D000C1F80835EB681F2B88BF03F01F0303F509
:1030E000E0738CBF0B4A4FF0A042032142F823103B
:1030F000EB682268A968C2F80835C2F8101576E7AF
:10310000074A01F00F010A4413769DE7E009002009
:10311000852D0000000300508000020000E100E067
:10312000FCEC00E0F8B53A4F047902682C2303FB6D
:10313000047300215B68C2F8001583B10368354A47
:10314000C3F808230368344D1B0B5AB252092032CE
:1031500003F01F03012101FA03F345F8223003684D
:103160004FF0FF3CD3F80C65D3F81455D3F808257D
:10317000D3F81015C3F814C5C3F80CC50368664529
:10318000C3F808C5C3F810C50CD01F2E86BF06F0C3
:103190001F06224B4FF0A04306F5E0764FF0020CDD
:1031A00043F826C06E1C0BD01F2D86BF05F01F05EF
:1031B0001A4B4FF0A04305F5E075022643F8256051
:1031C0004D1C0BD01F2986BF01F01F01134B4FF080
:1031D000A04301F5E071022543F82150531C0BD0A8
:1031E0001F2A86BF02F01F020C494FF0A04102F5D2
:1031F000E072022341F822300068FFF769FB2C23BC
:1032000003FB0474002384F82A306360F8BD00BF18
:10321000E00900208402020000E100E00003005009
:10322000F0B5314E05792C2303FB056385B05C694D
:10323000002C53D11C62996083F828405A610268BF
:10324000C2F81C41D2F81C11026802910121029FB0
:1032500091600268D3F808C0C2F81C41D2F81C1172
:1032600001910199D3F820E0196A5F681CF80EE01B
:1032700001311962C2F81CE517B1204605B0F0BD56
:103280001A6A5C690168944203D819E093F828200F
:103290003ABBD1F81C21002AF8D0C1F81C71D1F832
:1032A0001C210392039AD3F820E01A6A1CF80EE05E
:1032B00001321A62C1F81CE51A6AA242E9D3016818
:1032C000D1F81C31002BFBD00123CB6000202C2334
:1032D00003FB056500236B6105B0F0BD112005B04F
:1032E000F0BD0F20F3E700BFE0090020F0B5444B2C
:1032F000D3F8242189B0002A52D00021C3F8241128
:10330000D3F82421029202228DF81020029AD3F8D9
:1033100080043C4AC3F880040790D3F83C05D36886
:103320000690C2E9061105931168536804A89847EE
:10333000334BD3F84421BAB10021324AC3F84411C7
:10334000D3F8444190690194019C68B1D3F83C35AD
:10335000D06806930123C2E9061105908DF810305C
:1033600004A8D2E900139847254BD3F82021AAB12D
:103370000021C3F82011D3F82001224A00900098C0
:10338000506958B1D3F84C05936806908DF8101029
:103390005161059304A8D2E90013984709B0F0BD24
:1033A000D3F810110029C3D0C3F81021D3F810119D
:1033B0001448039103998169D3F83C458C42B7D1F5
:1033C000C569C768D0E900168DB1D3F800C2856120
:1033D0002CF02005C261C3F800520369C3600122CA
:1033E000CDE905748DF8102004A8B047A0E70123AB
:1033F0008561CDE905748DF8103004A8B04797E7D2
:10340000002000400C0A00202DE9F04307797A4E95
:103410004FEAC70808EB070306EB830385B093F870
:103420002030002B40F0A8800D4604467349006808
:103430009146FFF72FFA002840F09A802B68591C1C
:1034400019D01F2B4FF001028ABF6D494FF0A041E8
:1034500003F01F0302FA03F3C1F808352B681F2B92
:1034600086BF03F01F03664A4FF0A04203F5E073E6
:10347000032142F823106B685A1C0BD01F2B86BF08
:1034800003F01F035E4A4FF0A04203F5E0730021F2
:1034900042F823102368AA69C3F82425297D6A7D90
:1034A00023680A43C3F86C25D5E900312268C2F8C5
:1034B0000C35C2F814152B7D012B61D008EB0702E7
:1034C0009200B318C3F804902B69B350B9F1000F00
:1034D0003DD021682B7F4B4D0022C1F81021D1F83F
:1034E000101100912168DDF800C0C1F82021D1F849
:1034F000201101912168DDF804C0C1F82421D1F820
:10350000241102912168DDF808C0C1F84421D1F8E6
:103510004411226803910399C2F804532168090BEE
:103520004AB25B01002ADBB25FDB02F1604202F5C6
:10353000614282F800332368334D1B0B5AB25209A3
:1035400003F01F03012101FA03F345F82230474439
:10355000226806EB8706002301240821C2F8001523
:1035600086F82040C6E90633736105B0BDE8F083F4
:10357000112005B0BDE8F083082005B0BDE8F08358
:10358000AB68591C0BD01F2B86BF03F01F031C4ACE
:103590004FF0A04203F5E073002142F82310EB68DE
:1035A0005A1C1BD01F2B4FF001028ABF14494FF049
:1035B000A04103F01F0302FA03F3C1F80835EB68DA
:1035C0001F2B88BF03F01F0303F5E0738CBF0C4A69
:1035D0004FF0A042032142F82310EB682268A9684B
:1035E000C2F80835C2F8101568E7084A01F00F0163
:1035F0000A4413769FE700BF0C0A0020ED3200005A
:10360000000300501003020000E100E0FCEC00E0C9
:10361000F8B507793A4C0268FE00F31904EB83030E
:1036200000215B68C2F8001583B10368354AC3F80E
:1036300008230368344D1B0B5AB25209203203F0A1
:103640001F03012101FA03F345F8223003684FF00C
:10365000FF3ED3F80CC5D3F81455D3F80825D3F89A
:103660001015C3F80CE5C3F814E50368F445C3F876
:1036700008E5C3F810E50DD0BCF11F0F86BF0CF0B4
:103680001F0C224B4FF0A0430CF5E07C4FF0020ED4
:1036900043F82CE06B1C0CD01F2D86BF05F01F05D6
:1036A0001A4B4FF0A04305F5E0754FF0020C43F8BC
:1036B00025C04D1C0BD01F2986BF01F01F01134BE5
:1036C0004FF0A04301F5E071022543F82150531C4F
:1036D0000BD01F2A86BF02F01F020C494FF0A041F9
:1036E00002F5E072022341F822303E4404EB8604E6
:1036F0000068FFF7EDF8002384F820306360F8BD20
:103700000C0A00201003020000E100E0000300505A
:1037100001F06043B3F1005F2CD1F0B40579244E81
:10372000EF007C1906EB840482B0636923BB6261FD
:10373000A1600268C2F82031D2F820C10268CDF839
:1037400004C0DDF804C0C2F85831D2F85821009204
:103750000268DDF800C0D4F814C0C2F84415C2F8FD
:1037600048C502680121916062684AB1184602B0FA
:10377000F0BC704710207047112002B0F0BC7047B9
:10378000036800E08AB9D3F82011D3F85821002942
:10379000F8D0002A14BF0F2000207B1906EB83030A
:1037A00000225A6102B0F0BC70470F20F5E700BF5D
:1037B0000C0A00200448054B0549C01AC008000443
:1037C00040F00300FCF76ABF603F0000383F000094
:1037D000D83D00000448054B0549C01AC008000444
:1037E00040F00300FCF75ABF603F0000383F000084
:1037F000D83D00002DE9F047012088B0FDF7B8FA68
:10380000FEF7D8FB08B1FDF7E1FA0223032404A96F
:10381000374A8DF8103023208DF812308DF8114082
:10382000FEF712FC08B1FDF7D1FA01212320FEF7C3
:10383000FBFC304A04A92420FEF706FC08B1FDF782
:10384000C5FA01212420FEF7EFFC4FF400410020CF
:10385000FCF7C4FE08B1FDF7B9FAFCF745FE264BAC
:10386000264D0FCB6C4684E80F00002321461A46F4
:1038700023480095FEF7DCFA08B1FDF7A7FA214BC3
:10388000214F2249DFF89480214DDFF89490FF1AF0
:10389000FF083F0447F003073846FCF7FFFEC24627
:1038A00045F00105072607220021504600F07FF968
:1038B000002204A91748CDE90496CDE90686FFF752
:1038C00093F988B914493846FCF7E8FEFDF78AF801
:1038D0000028FBD1FDF732FA44F620644FF47A4019
:1038E000A847013CFAD1DEE7FDF770FAEAE700BF2E
:1038F000B5370000D5370000BC3D00002F2D2E2C21
:10390000143E0000383F0000603F0000E83D00002A
:10391000D03D0000183E0000003E0000300A0020AC
:103920001C00002010B44FF080414FF08052002066
:10393000C1F80C015E4BC1F81001C1F83805D2F88E
:103940000414C3F82015D2F80814C3F82415D2F8CB
:103950000C14C3F82815D2F81014C3F82C15D2F89B
:103960001414C3F83015D2F81814C3F83415D2F86B
:103970001C14C3F84015D2F82014C3F84415D2F82B
:103980002414C3F84815D2F82814C3F84C15D2F8FB
:103990002C14C3F85015D2F83014C3F85415D2F8CB
:1039A0003414C3F86015D2F83814C3F86415D2F88B
:1039B0003C04C3F86805D2F840043E49C3F86C05DE
:1039C0000968D2F84424C3F87025082924D04FF0A0
:1039D0008043D3F80024D20744BF6FF00102C3F83C
:1039E0000024354AD2F8883043F47003C2F8883096
:1039F000BFF34F8FBFF36F8F4FF01023D3F8002228
:103A0000002A23DBD3F80432002B1FDB2B4B2C4A7C
:103A10001A605DF8044B70472A4B1B68002BD6D107
:103A200029482A4A2A4C04602A492B4BFB20C2F819
:103A300018050A681B68294822F00F0203F00F03DB
:103A400013434FF400720B600260C0E7244B012265
:103A5000C3F80425D3F80024002AFBD04FF010232C
:103A600012221F49C3F80022D1F80034002BFBD0EA
:103A70004FF0102212211A4BC2F80412D3F800247E
:103A8000002AFBD000221649C3F80425D1F80034DF
:103A9000002BFBD0BFF34F8F0749124BCA6802F4CB
:103AA000E0621343CB60BFF34F8F00BFFDE700BF61
:103AB00000C000403001001000ED00E024000020B4
:103AC0000090D003340100108C56004000F00040FC
:103AD00048810300E40E0040580200104096024066
:103AE00000E001400400FA0508B5074B044613B195
:103AF0000021AFF30080054B1868836A03B1984733
:103B0000204600F071F800BF00000000243E0000D5
:103B100070B50D4E0D4CA41BA4100025A54209D173
:103B20000B4E0C4C00F062F8A41BA4100025A5421B
:103B300005D170BD56F8253098470135EEE756F8A7
:103B4000253098470135F2E7F8010020F801002000
:103B5000F8010020FC010020044B054A1B681B6A89
:103B6000002B08BF1346D3F8EC0070472800002054
:103B70008C00002082B001B901A942B14BB1137889
:103B80000B601278101C18BF012002B0704710465D
:103B9000FBE76FF00100F8E710B5431E0A449142BD
:103BA00000D110BD11F8014B03F8014FF7E70244B3
:103BB0000346934200D1704703F8011BF9E703461F
:103BC00013F8012B002AFBD1181A0138704749B1AC
:103BD000FF2A85BF8A2303600A704FF0FF3098BF29
:103BE0000120704708467047FEE700BFF8B500BFE8
:103BF000F8BC08BC9E467047F8B500BFF8BC08BCCE
:103C00009E467047FFFFFFFFFFFFFFFFFFFFFFFF25
:103C1000FFFFFFFF00000000000000000000D601D1
:103C200006010000D503000041040000D10300009C
:103C3000756172745F6C6F675F6261636B656E6400
:103C400000000000580700207F000000D807002077
:103C50004261636B656E647320666C75736865643E
:103C60000000000061707000C03C0000F03C0000EB
:103C7000A03C0000F83C0000003D0000083D0000B2
:103C8000103D0000183D0000203D0000202530328E
:103C900078000000202020007C0000002563000048
:103CA0001B5B313B33316D0025734C6F67732064B0
:103CB000726F70706564202825642925730D0A00D1
:103CC0001B5B306D00000000257300003C25733E37
:103CD0002025733A200000000D0A000000000000BB
:103CE000283D0000303D0000383D0000403D000010
:103CF0001B5B313B33306D001B5B313B33326D005E
:103D00001B5B313B33336D001B5B313B33346D0048
:103D10001B5B313B33356D001B5B313B33366D0034
:103D20001B5B313B33376D006572726F72000000B0
:103D30007761726E696E6700696E666F00000000E1
:103D400064656275670000000D0E0F1046617461B6
:103D50006C206572726F720053797374656D207296
:103D600065736574000000000000000000000000A2
:103D70000338FDD8704700003031323334353637E0
:103D80003839414243444546FFFFFFFF0006FF002C
:103D900000000040000000004750494F544500001B
:103DA000505253005350494D0000000055415254A9
:103DB000000000005541525445000000FFFFFFFF86
:103DC00006FF0000000000400000000000000000AE
:103DD0000338FDD870470000696E5F70696E5F68D8
:103DE000616E646C65720000535049206578616DA6
:103DF000706C6520737461727465642E000000003D
:103E00005472616E7366657220636F6D706C657459
:103E100065642E000000000000300040000000003B
:103E2000010000002C0000204300504F534958006F
:103E30002E00002020202020202020202828282894
:103E4000282020202020202020202020202020206A
:103E500020202088101010101010101010101010BA
:103E600010101004040404040404040404101010CA
:103E70001010101041414141414101010101010176
:103E80000101010101010101010101010101101004
:103E9000101010104242424242420202020202024A
:103EA00002020202020202020202020202021010D6
:103EB00010102000000000000000000000000000C2
:103EC00000000000000000000000000000000000F2
:103ED00000000000000000000000000000000000E2
:103EE00000000000000000000000000000000000D2
:103EF00000000000000000000000000000000000C2
:103F000000000000000000000000000000000000B1
:103F100000000000000000000000000000000000A1
:103F20000000000000000000000000000000000091
:083F3000000000000000000089
:103F3800983D000000000000A03D000000000000C7
:103F4800A43D000000000000AC3D0000000000009F
:103F5800B43D000000000000643C000000000303C2
:103F6800243C000000000000303C00001400002049
:103F7800640200202C030020340300206C0200207F
:043F8800180000001D
:083F8C00B4C2FF7F0100000038
:103F9400000000000020004000000000002000405D
:103FA4000000000000000000FF0000004E6F72647B
:103FB400696300000090D0032C0000200000000082
:103FC40000000000000000000000000000000000ED
:103FD40000000000000000000000000000000000DD
:103FE40000000000000000000000000000000000CD
:103FF40000000000000000000000000000000000BD
:1040040000000000000000000000000000000000AC
:104014000000000000000000000000004300000059
:10402400000000000000000000000000000000008C
:104034000000000000000000000000004300000039
:10404400000000000000000000000000000000006C
:104054000000000000000000000000004300000019
:10406400000000000000000000000000000000004C
:1040740000000000000000000000000043000000F9
:10408400000000000000000000000000000000002C
:1040940000000000000000000000000043000000D9
:1040A400000000000000000000000000000000000C
:1040B40000000000000000000000000043000000B9
:1040C40000000000000000000000000000000000EC
:1040D4000000000000000000000000004300000099
:1040E40000000000000000000000000000000000CC
:1040F400000000000000000000000000CF3B0000B2
:10410400753B000000000000323E0000303E00001D
:10411400313E0000313E0000313E0000313E0000DF
:10412400313E0000313E0000313E0000313E0000CF
:10413400313E0000FFFFFFFFFFFFFFFFFFFFFFFF18
:10414400FFFF000001004153434949000000000003
:10415400000000000000000000000000000000005B
:1041640000000000000041534349490000000000E2
:10417400000000000000000000000000000000003B
:104184000000000000000000250200000102000001
:04000003000002B542
:00000001FF
